{
	"data": {
		"bytecode": {
			"linkReferences": {},
			"object": "60a06040523480156200001157600080fd5b506040518060400160405280600981526020017f416c6c6f774c69737400000000000000000000000000000000000000000000008152506040518060400160405280600181526020017f31000000000000000000000000000000000000000000000000000000000000008152506200009282824630620000c160201b60201c565b608081815250505050620000bb620000af6200013160201b60201c565b620001e360201b60201c565b62000381565b6000807f8b73c3c69bb8fe3d512ecc4cf759cc79239f7b179b0ffacaa9a75d522b39400f8680519060200120868051906020012086866040516020016200010d95949392919062000324565b60405160208183030381529060405290508080519060200120915050949350505050565b60003073ffffffffffffffffffffffffffffffffffffffff163373ffffffffffffffffffffffffffffffffffffffff1603620001dc57600080368080601f016020809104026020016040519081016040528093929190818152602001838380828437600081840152601f19601f820116905080830192505050505050509050600080369050905073ffffffffffffffffffffffffffffffffffffffff818301511692505050620001e0565b3390505b90565b6000600160009054906101000a900473ffffffffffffffffffffffffffffffffffffffff16905081600160006101000a81548173ffffffffffffffffffffffffffffffffffffffff021916908373ffffffffffffffffffffffffffffffffffffffff1602179055508173ffffffffffffffffffffffffffffffffffffffff168173ffffffffffffffffffffffffffffffffffffffff167f8be0079c531659141344cd1fd0a4f28419497f9722a3daafe3b4186f6b6457e060405160405180910390a35050565b6000819050919050565b620002be81620002a9565b82525050565b6000819050919050565b620002d981620002c4565b82525050565b600073ffffffffffffffffffffffffffffffffffffffff82169050919050565b60006200030c82620002df565b9050919050565b6200031e81620002ff565b82525050565b600060a0820190506200033b6000830188620002b3565b6200034a6020830187620002b3565b620003596040830186620002b3565b620003686060830185620002ce565b62000377608083018462000313565b9695505050505050565b6080516136cf620003ab6000396000818161095c01528181610d1f0152610f4b01526136cf6000f3fe608060405234801561001057600080fd5b506004361061018e5760003560e01c8063736f7ce7116100de578063a2e01f7511610097578063caced6c511610071578063caced6c514610553578063d327c1eb14610583578063dfe86ac5146105b3578063f2fde38b146105d15761018e565b8063a2e01f75146104d7578063a5eaa1f114610507578063a7cd52cb146105235761018e565b8063736f7ce7146103c95780637b577b58146103f957806389535803146104295780638a04499e146104595780638da5cb5b1461048957806397182ed6146104a75761018e565b80635cf1b24a1161014b5780636c2b1253116101255780636c2b12531461032f5780636f9658031461035f578063715018a61461038f5780637234eefe146103995761018e565b80635cf1b24a1461029f57806360b6d768146102cf57806363a9c3d7146102ff5761018e565b806308aaf6b0146101935780632f52a2fd146101c35780632fad7efc146101f35780633a481821146102235780633b7fa354146102535780635c6d9f0c1461026f575b600080fd5b6101ad60048036038101906101a89190611bc8565b6105ed565b6040516101ba9190611c2a565b60405180910390f35b6101dd60048036038101906101d89190611dd7565b610655565b6040516101ea9190611c2a565b60405180910390f35b61020d60048036038101906102089190611e7b565b6106c4565b60405161021a9190611ee3565b60405180910390f35b61023d60048036038101906102389190612286565b6107ab565b60405161024a9190611c2a565b60405180910390f35b61026d600480360381019061026891906122cf565b61082b565b005b61028960048036038101906102849190612352565b6108d1565b6040516102969190611ee3565b60405180910390f35b6102b960048036038101906102b4919061239f565b6108e6565b6040516102c69190611c2a565b60405180910390f35b6102e960048036038101906102e491906124a4565b610957565b6040516102f69190611c2a565b60405180910390f35b610319600480360381019061031491906122cf565b6109b6565b6040516103269190611ee3565b60405180910390f35b610349600480360381019061034491906124ed565b610a0c565b6040516103569190611c2a565b60405180910390f35b61037960048036038101906103749190612536565b610a7c565b6040516103869190611c2a565b60405180910390f35b610397610add565b005b6103b360048036038101906103ae91906124a4565b610af1565b6040516103c09190611c2a565b60405180910390f35b6103e360048036038101906103de9190612563565b610b62565b6040516103f09190611c2a565b60405180910390f35b610413600480360381019061040e91906125ac565b610be2565b6040516104209190611c2a565b60405180910390f35b610443600480360381019061043e91906125f5565b610c62565b6040516104509190612644565b60405180910390f35b610473600480360381019061046e91906124ed565b610cbc565b604051610480919061266e565b60405180910390f35b610491610cf0565b60405161049e919061266e565b60405180910390f35b6104c160048036038101906104bc9190611dd7565b610d1a565b6040516104ce9190611c2a565b60405180910390f35b6104f160048036038101906104ec9190612689565b610d79565b6040516104fe9190611c2a565b60405180910390f35b610521600480360381019061051c91906122cf565b610de7565b005b61053d600480360381019061053891906122cf565b610e8d565b60405161054a9190611ee3565b60405180910390f35b61056d6004803603810190610568919061275a565b610ead565b60405161057a919061266e565b60405180910390f35b61059d60048036038101906105989190612844565b610edb565b6040516105aa9190611c2a565b60405180910390f35b6105bb610f49565b6040516105c89190611c2a565b60405180910390f35b6105eb60048036038101906105e691906122cf565b610f6d565b005b6000807f80ad7e1b04ee6d994a125f4714ca0720908bd80ed16063ec8aee4b88e9253e2d8360000151846020015180519060200120604051602001610634939291906128e3565b60405160208183030381529060405290508080519060200120915050919050565b6000807f409f5114779a253e700d775d7845e6efc1e83685ac59868d2df3d4de51c7d621836000015184602001516106908660400151610be2565b6040516020016106a3949392919061291a565b60405160208183030381529060405290508080519060200120915050919050565b600080600090505b838390508110156107a457368484838181106106eb576106ea61295f565b5b90506020028101906106fd919061299d565b905060006107138261070e906129c5565b610ead565b90506107658187878681811061072c5761072b61295f565b5b905060200281019061073e919061299d565b806000019061074d91906129d8565b6020018036038101906107609190612536565b610ff0565b61078d82806000019061077891906129d8565b80600001906107879190612a00565b836110f9565b93505050808061079c90612a92565b9150506106cc565b5092915050565b6000606060005b835181101561081457816107df8583815181106107d2576107d161295f565b5b60200260200101516108e6565b6040516020016107f0929190612b75565b6040516020818303038152906040529150808061080c90612a92565b9150506107b2565b506000818051906020012090508092505050919050565b61083361153e565b6001600260008373ffffffffffffffffffffffffffffffffffffffff1673ffffffffffffffffffffffffffffffffffffffff16815260200190815260200160002060006101000a81548160ff0219169083151502179055508073ffffffffffffffffffffffffffffffffffffffff167f7a5825f7334f92cdbea53b71aec79402b67bf59af4f6d8f261e11266cc8c650360405160405180910390a250565b60006108de8383336110f9565b905092915050565b6000807fd97dd99b404d177890f06a8f0fc8e5ed0333fb2ebb6684360709066e8984f5946109178460000151610d79565b6109248560200151610b62565b60405160200161093693929190612b9d565b60405160208183030381529060405290508080519060200120915050919050565b6000807f000000000000000000000000000000000000000000000000000000000000000061098484610af1565b604051602001610995929190612c2b565b60405160208183030381529060405280519060200120905080915050919050565b6000600260008373ffffffffffffffffffffffffffffffffffffffff1673ffffffffffffffffffffffffffffffffffffffff16815260200190815260200160002060009054906101000a900460ff169050919050565b6000807f3c36a06e1d288b0f94f565588317a46ad11bc3c96992109f9a2365a2737259a7610a3d8460000151610655565b846020015180519060200120604051602001610a5b93929190612b9d565b60405160208183030381529060405290508080519060200120915050919050565b6000807fe8d3d963b33868fb116316bc3fd55e8f49123f30e4418f71e140d54b7cd3b2b983600001518460200151604051602001610abc93929190612c62565b60405160208183030381529060405290508080519060200120915050919050565b610ae561153e565b610aef60006115bc565b565b6000807f08c69a206c06f5334b35ceb1186181a713b21aff02cf66285f375084fbef2eb8610b2284600001516107ab565b610b2f8560200151610a7c565b604051602001610b4193929190612b9d565b60405160208183030381529060405290508080519060200120915050919050565b6000606060005b8351811015610bcb5781610b96858381518110610b8957610b8861295f565b5b6020026020010151610a0c565b604051602001610ba7929190612b75565b60405160208183030381529060405291508080610bc390612a92565b915050610b69565b506000818051906020012090508092505050919050565b6000606060005b8351811015610c4b5781610c16858381518110610c0957610c0861295f565b5b60200260200101516105ed565b604051602001610c27929190612b75565b60405160208183030381529060405291508080610c4390612a92565b915050610be9565b506000818051906020012090508092505050919050565b60008060008473ffffffffffffffffffffffffffffffffffffffff1673ffffffffffffffffffffffffffffffffffffffff168152602001908152602001600020600083815260200190815260200160002054905092915050565b600080826000015190506000610cd182610d1a565b90506000610ce3828660200151611682565b9050809350505050919050565b6000600160009054906101000a900473ffffffffffffffffffffffffffffffffffffffff16905090565b6000807f0000000000000000000000000000000000000000000000000000000000000000610d4784610655565b604051602001610d58929190612c2b565b60405160208183030381529060405280519060200120905080915050919050565b6000807fb16dfdb3b8fa033fe30ac976cd4a50ad256b6811c80d90fcd0b323eec190047d83600001518460200151856040015180519060200120604051602001610dc69493929190612c99565b60405160208183030381529060405290508080519060200120915050919050565b610def61153e565b6000600260008373ffffffffffffffffffffffffffffffffffffffff1673ffffffffffffffffffffffffffffffffffffffff16815260200190815260200160002060006101000a81548160ff0219169083151502179055508073ffffffffffffffffffffffffffffffffffffffff167f7e298992e49c38ae84b996bd3daba51048bc3a270795a3dd186fd8ab6e7d1ff560405160405180910390a250565b60026020528060005260406000206000915054906101000a900460ff1681565b600080610ebd8360000151610957565b90506000610ecf828560200151611682565b90508092505050919050565b6000807f8b73c3c69bb8fe3d512ecc4cf759cc79239f7b179b0ffacaa9a75d522b39400f868051906020012086805190602001208686604051602001610f25959493929190612cde565b60405160208183030381529060405290508080519060200120915050949350505050565b7f000000000000000000000000000000000000000000000000000000000000000081565b610f7561153e565b600073ffffffffffffffffffffffffffffffffffffffff168173ffffffffffffffffffffffffffffffffffffffff1603610fe4576040517f08c379a0000000000000000000000000000000000000000000000000000000008152600401610fdb90612db4565b60405180910390fd5b610fed816115bc565b50565b60008160200151905060008260000151905060016000808673ffffffffffffffffffffffffffffffffffffffff1673ffffffffffffffffffffffffffffffffffffffff16815260200190815260200160002060008481526020019081526020016000205461105e9190612dd4565b811461109f576040517f08c379a000000000000000000000000000000000000000000000000000000000815260040161109690612e9c565b60405180910390fd5b806000808673ffffffffffffffffffffffffffffffffffffffff1673ffffffffffffffffffffffffffffffffffffffff16815260200190815260200160002060008481526020019081526020016000208190555050505050565b600080600090505b848490508110156115365760008585838181106111215761112061295f565b5b90506020028101906111339190612ebc565b61113c90612ee4565b9050600080600083602001515103611155578591508190505b60008060001b905060005b8460200151518110156113da576000856020015182815181106111865761118561295f565b5b60200260200101519050600061119b82610cbc565b9050600083036111ac578095508594505b8473ffffffffffffffffffffffffffffffffffffffff168173ffffffffffffffffffffffffffffffffffffffff161461121a576040517f08c379a000000000000000000000000000000000000000000000000000000000815260040161121190612f69565b60405180910390fd5b60008260000151905084816020015114611269576040517f08c379a000000000000000000000000000000000000000000000000000000000815260040161126090612ffb565b60405180910390fd5b600061127484610a0c565b905060005b8260400151518161ffff1610156113b857600083604001518261ffff16815181106112a7576112a661295f565b5b602002602001015160000151905060008173ffffffffffffffffffffffffffffffffffffffff16635068de4c86604001518561ffff16815181106112ee576112ed61295f565b5b6020026020010151602001518e60000151876040518463ffffffff1660e01b815260040161131e9392919061311d565b6020604051808303816000875af115801561133d573d6000803e3d6000fd5b505050506040513d601f19601f82011682018060405250810190611361919061318e565b9050806113a3576040517f08c379a000000000000000000000000000000000000000000000000000000000815260040161139a90613207565b60405180910390fd5b505080806113b090613235565b915050611279565b50809550816000015196505050505080806113d290612a92565b915050611160565b508673ffffffffffffffffffffffffffffffffffffffff168273ffffffffffffffffffffffffffffffffffffffff1614611449576040517f08c379a0000000000000000000000000000000000000000000000000000000008152600401611440906132ab565b60405180910390fd5b6000846000015190503073ffffffffffffffffffffffffffffffffffffffff16816000015173ffffffffffffffffffffffffffffffffffffffff16146114c4576040517f08c379a00000000000000000000000000000000000000000000000000000000081526004016114bb9061333d565b60405180910390fd5b6114dc81600001518260400151836020015187611755565b96508661151e576040517f08c379a0000000000000000000000000000000000000000000000000000000008152600401611515906133cf565b60405180910390fd5b5050505050808061152e90612a92565b915050611101565b509392505050565b61154661188e565b73ffffffffffffffffffffffffffffffffffffffff16611564610cf0565b73ffffffffffffffffffffffffffffffffffffffff16146115ba576040517f08c379a00000000000000000000000000000000000000000000000000000000081526004016115b19061343b565b60405180910390fd5b565b6000600160009054906101000a900473ffffffffffffffffffffffffffffffffffffffff16905081600160006101000a81548173ffffffffffffffffffffffffffffffffffffffff021916908373ffffffffffffffffffffffffffffffffffffffff1602179055508173ffffffffffffffffffffffffffffffffffffffff168173ffffffffffffffffffffffffffffffffffffffff167f8be0079c531659141344cd1fd0a4f28419497f9722a3daafe3b4186f6b6457e060405160405180910390a35050565b600080600080604185511461169d576000935050505061174f565b6020850151925060408501519150606085015160001a9050601b8160ff1610156116d157601b816116ce9190613468565b90505b601b8160ff16141580156116e95750601c8160ff1614155b156116fa576000935050505061174f565b6001868285856040516000815260200160405260405161171d94939291906134ae565b6020604051602081039080840390855afa15801561173f573d6000803e3d6000fd5b5050506020604051035193505050505b92915050565b600080848360405160200161176b92919061353b565b604051602081830303815290604052905060608673ffffffffffffffffffffffffffffffffffffffff1685836040516117a49190613563565b60006040518083038160008787f1925050503d80600081146117e2576040519150601f19603f3d011682016040523d82523d6000602084013e6117e7565b606091505b508092508194505050826118845760008151111561184957600061180a8261193e565b9050806040517f08c379a000000000000000000000000000000000000000000000000000000000815260040161184091906135be565b60405180910390fd5b6040517f08c379a000000000000000000000000000000000000000000000000000000000815260040161187b906133cf565b60405180910390fd5b5050949350505050565b60003073ffffffffffffffffffffffffffffffffffffffff163373ffffffffffffffffffffffffffffffffffffffff160361193757600080368080601f016020809104026020016040519081016040528093929190818152602001838380828437600081840152601f19601f820116905080830192505050505050509050600080369050905073ffffffffffffffffffffffffffffffffffffffff81830151169250505061193b565b3390505b90565b606060008251905060448110156119675760405180602001604052806000815250915050611995565b6000600484019350835190506004820384528380602001905181019061198d9190613650565b925080845250505b919050565b6000604051905090565b600080fd5b600080fd5b600080fd5b6000601f19601f8301169050919050565b7f4e487b7100000000000000000000000000000000000000000000000000000000600052604160045260246000fd5b6119fc826119b3565b810181811067ffffffffffffffff82111715611a1b57611a1a6119c4565b5b80604052505050565b6000611a2e61199a565b9050611a3a82826119f3565b919050565b600080fd5b600073ffffffffffffffffffffffffffffffffffffffff82169050919050565b6000611a6f82611a44565b9050919050565b611a7f81611a64565b8114611a8a57600080fd5b50565b600081359050611a9c81611a76565b92915050565b600080fd5b600080fd5b600067ffffffffffffffff821115611ac757611ac66119c4565b5b611ad0826119b3565b9050602081019050919050565b82818337600083830152505050565b6000611aff611afa84611aac565b611a24565b905082815260208101848484011115611b1b57611b1a611aa7565b5b611b26848285611add565b509392505050565b600082601f830112611b4357611b42611aa2565b5b8135611b53848260208601611aec565b91505092915050565b600060408284031215611b7257611b716119ae565b5b611b7c6040611a24565b90506000611b8c84828501611a8d565b600083015250602082013567ffffffffffffffff811115611bb057611baf611a3f565b5b611bbc84828501611b2e565b60208301525092915050565b600060208284031215611bde57611bdd6119a4565b5b600082013567ffffffffffffffff811115611bfc57611bfb6119a9565b5b611c0884828501611b5c565b91505092915050565b6000819050919050565b611c2481611c11565b82525050565b6000602082019050611c3f6000830184611c1b565b92915050565b611c4e81611c11565b8114611c5957600080fd5b50565b600081359050611c6b81611c45565b92915050565b600067ffffffffffffffff821115611c8c57611c8b6119c4565b5b602082029050602081019050919050565b600080fd5b6000611cb5611cb084611c71565b611a24565b90508083825260208201905060208402830185811115611cd857611cd7611c9d565b5b835b81811015611d1f57803567ffffffffffffffff811115611cfd57611cfc611aa2565b5b808601611d0a8982611b5c565b85526020850194505050602081019050611cda565b5050509392505050565b600082601f830112611d3e57611d3d611aa2565b5b8135611d4e848260208601611ca2565b91505092915050565b600060608284031215611d6d57611d6c6119ae565b5b611d776060611a24565b90506000611d8784828501611a8d565b6000830152506020611d9b84828501611c5c565b602083015250604082013567ffffffffffffffff811115611dbf57611dbe611a3f565b5b611dcb84828501611d29565b60408301525092915050565b600060208284031215611ded57611dec6119a4565b5b600082013567ffffffffffffffff811115611e0b57611e0a6119a9565b5b611e1784828501611d57565b91505092915050565b600080fd5b60008083601f840112611e3b57611e3a611aa2565b5b8235905067ffffffffffffffff811115611e5857611e57611e20565b5b602083019150836020820283011115611e7457611e73611c9d565b5b9250929050565b60008060208385031215611e9257611e916119a4565b5b600083013567ffffffffffffffff811115611eb057611eaf6119a9565b5b611ebc85828601611e25565b92509250509250929050565b60008115159050919050565b611edd81611ec8565b82525050565b6000602082019050611ef86000830184611ed4565b92915050565b600067ffffffffffffffff821115611f1957611f186119c4565b5b602082029050602081019050919050565b6000819050919050565b611f3d81611f2a565b8114611f4857600080fd5b50565b600081359050611f5a81611f34565b92915050565b600060608284031215611f7657611f756119ae565b5b611f806060611a24565b90506000611f9084828501611a8d565b6000830152506020611fa484828501611f4b565b602083015250604082013567ffffffffffffffff811115611fc857611fc7611a3f565b5b611fd484828501611b2e565b60408301525092915050565b600067ffffffffffffffff821115611ffb57611ffa6119c4565b5b602082029050602081019050919050565b600060408284031215612022576120216119ae565b5b61202c6040611a24565b9050600082013567ffffffffffffffff81111561204c5761204b611a3f565b5b61205884828501611d57565b600083015250602082013567ffffffffffffffff81111561207c5761207b611a3f565b5b61208884828501611b2e565b60208301525092915050565b60006120a76120a284611fe0565b611a24565b905080838252602082019050602084028301858111156120ca576120c9611c9d565b5b835b8181101561211157803567ffffffffffffffff8111156120ef576120ee611aa2565b5b8086016120fc898261200c565b855260208501945050506020810190506120cc565b5050509392505050565b600082601f8301126121305761212f611aa2565b5b8135612140848260208601612094565b91505092915050565b60006040828403121561215f5761215e6119ae565b5b6121696040611a24565b9050600082013567ffffffffffffffff81111561218957612188611a3f565b5b61219584828501611f60565b600083015250602082013567ffffffffffffffff8111156121b9576121b8611a3f565b5b6121c58482850161211b565b60208301525092915050565b60006121e46121df84611efe565b611a24565b9050808382526020820190506020840283018581111561220757612206611c9d565b5b835b8181101561224e57803567ffffffffffffffff81111561222c5761222b611aa2565b5b8086016122398982612149565b85526020850194505050602081019050612209565b5050509392505050565b600082601f83011261226d5761226c611aa2565b5b813561227d8482602086016121d1565b91505092915050565b60006020828403121561229c5761229b6119a4565b5b600082013567ffffffffffffffff8111156122ba576122b96119a9565b5b6122c684828501612258565b91505092915050565b6000602082840312156122e5576122e46119a4565b5b60006122f384828501611a8d565b91505092915050565b60008083601f84011261231257612311611aa2565b5b8235905067ffffffffffffffff81111561232f5761232e611e20565b5b60208301915083602082028301111561234b5761234a611c9d565b5b9250929050565b60008060208385031215612369576123686119a4565b5b600083013567ffffffffffffffff811115612387576123866119a9565b5b612393858286016122fc565b92509250509250929050565b6000602082840312156123b5576123b46119a4565b5b600082013567ffffffffffffffff8111156123d3576123d26119a9565b5b6123df84828501612149565b91505092915050565b6000604082840312156123fe576123fd6119ae565b5b6124086040611a24565b9050600061241884828501611f4b565b600083015250602061242c84828501611f4b565b60208301525092915050565b60006060828403121561244e5761244d6119ae565b5b6124586040611a24565b9050600082013567ffffffffffffffff81111561247857612477611a3f565b5b61248484828501612258565b6000830152506020612498848285016123e8565b60208301525092915050565b6000602082840312156124ba576124b96119a4565b5b600082013567ffffffffffffffff8111156124d8576124d76119a9565b5b6124e484828501612438565b91505092915050565b600060208284031215612503576125026119a4565b5b600082013567ffffffffffffffff811115612521576125206119a9565b5b61252d8482850161200c565b91505092915050565b60006040828403121561254c5761254b6119a4565b5b600061255a848285016123e8565b91505092915050565b600060208284031215612579576125786119a4565b5b600082013567ffffffffffffffff811115612597576125966119a9565b5b6125a38482850161211b565b91505092915050565b6000602082840312156125c2576125c16119a4565b5b600082013567ffffffffffffffff8111156125e0576125df6119a9565b5b6125ec84828501611d29565b91505092915050565b6000806040838503121561260c5761260b6119a4565b5b600061261a85828601611a8d565b925050602061262b85828601611f4b565b9150509250929050565b61263e81611f2a565b82525050565b60006020820190506126596000830184612635565b92915050565b61266881611a64565b82525050565b6000602082019050612683600083018461265f565b92915050565b60006020828403121561269f5761269e6119a4565b5b600082013567ffffffffffffffff8111156126bd576126bc6119a9565b5b6126c984828501611f60565b91505092915050565b6000604082840312156126e8576126e76119ae565b5b6126f26040611a24565b9050600082013567ffffffffffffffff81111561271257612711611a3f565b5b61271e84828501612438565b600083015250602082013567ffffffffffffffff81111561274257612741611a3f565b5b61274e84828501611b2e565b60208301525092915050565b6000602082840312156127705761276f6119a4565b5b600082013567ffffffffffffffff81111561278e5761278d6119a9565b5b61279a848285016126d2565b91505092915050565b600067ffffffffffffffff8211156127be576127bd6119c4565b5b6127c7826119b3565b9050602081019050919050565b60006127e76127e2846127a3565b611a24565b90508281526020810184848401111561280357612802611aa7565b5b61280e848285611add565b509392505050565b600082601f83011261282b5761282a611aa2565b5b813561283b8482602086016127d4565b91505092915050565b6000806000806080858703121561285e5761285d6119a4565b5b600085013567ffffffffffffffff81111561287c5761287b6119a9565b5b61288887828801612816565b945050602085013567ffffffffffffffff8111156128a9576128a86119a9565b5b6128b587828801612816565b93505060406128c687828801611f4b565b92505060606128d787828801611a8d565b91505092959194509250565b60006060820190506128f86000830186611c1b565b612905602083018561265f565b6129126040830184611c1b565b949350505050565b600060808201905061292f6000830187611c1b565b61293c602083018661265f565b6129496040830185611c1b565b6129566060830184611c1b565b95945050505050565b7f4e487b7100000000000000000000000000000000000000000000000000000000600052603260045260246000fd5b600080fd5b600080fd5b600080fd5b6000823560016040038336030381126129b9576129b861298e565b5b80830191505092915050565b60006129d136836126d2565b9050919050565b6000823560016060038336030381126129f4576129f361298e565b5b80830191505092915050565b60008083356001602003843603038112612a1d57612a1c61298e565b5b80840192508235915067ffffffffffffffff821115612a3f57612a3e612993565b5b602083019250602082023603831315612a5b57612a5a612998565b5b509250929050565b7f4e487b7100000000000000000000000000000000000000000000000000000000600052601160045260246000fd5b6000612a9d82611f2a565b91507fffffffffffffffffffffffffffffffffffffffffffffffffffffffffffffffff8203612acf57612ace612a63565b5b600182019050919050565b600081519050919050565b600081905092915050565b60005b83811015612b0e578082015181840152602081019050612af3565b83811115612b1d576000848401525b50505050565b6000612b2e82612ada565b612b388185612ae5565b9350612b48818560208601612af0565b80840191505092915050565b6000819050919050565b612b6f612b6a82611c11565b612b54565b82525050565b6000612b818285612b23565b9150612b8d8284612b5e565b6020820191508190509392505050565b6000606082019050612bb26000830186611c1b565b612bbf6020830185611c1b565b612bcc6040830184611c1b565b949350505050565b600081905092915050565b7f1901000000000000000000000000000000000000000000000000000000000000600082015250565b6000612c15600283612bd4565b9150612c2082612bdf565b600282019050919050565b6000612c3682612c08565b9150612c428285612b5e565b602082019150612c528284612b5e565b6020820191508190509392505050565b6000606082019050612c776000830186611c1b565b612c846020830185612635565b612c916040830184612635565b949350505050565b6000608082019050612cae6000830187611c1b565b612cbb602083018661265f565b612cc86040830185612635565b612cd56060830184611c1b565b95945050505050565b600060a082019050612cf36000830188611c1b565b612d006020830187611c1b565b612d0d6040830186611c1b565b612d1a6060830185612635565b612d27608083018461265f565b9695505050505050565b600082825260208201905092915050565b7f4f776e61626c653a206e6577206f776e657220697320746865207a65726f206160008201527f6464726573730000000000000000000000000000000000000000000000000000602082015250565b6000612d9e602683612d31565b9150612da982612d42565b604082019050919050565b60006020820190508181036000830152612dcd81612d91565b9050919050565b6000612ddf82611f2a565b9150612dea83611f2a565b9250827fffffffffffffffffffffffffffffffffffffffffffffffffffffffffffffffff03821115612e1f57612e1e612a63565b5b828201905092915050565b7f44656c6567617461626c65436f72653a6e6f6e6365322d6f75742d6f662d6f7260008201527f6465720000000000000000000000000000000000000000000000000000000000602082015250565b6000612e86602383612d31565b9150612e9182612e2a565b604082019050919050565b60006020820190508181036000830152612eb581612e79565b9050919050565b600082356001604003833603038112612ed857612ed761298e565b5b80830191505092915050565b6000612ef03683612149565b9050919050565b7f44656c6567617461626c65436f72653a696e76616c69642d64656c656761746960008201527f6f6e2d7369676e65720000000000000000000000000000000000000000000000602082015250565b6000612f53602983612d31565b9150612f5e82612ef7565b604082019050919050565b60006020820190508181036000830152612f8281612f46565b9050919050565b7f44656c6567617461626c65436f72653a696e76616c69642d617574686f72697460008201527f792d64656c65676174696f6e2d6c696e6b000000000000000000000000000000602082015250565b6000612fe5603183612d31565b9150612ff082612f89565b604082019050919050565b6000602082019050818103600083015261301481612fd8565b9050919050565b600082825260208201905092915050565b600061303782612ada565b613041818561301b565b9350613051818560208601612af0565b61305a816119b3565b840191505092915050565b61306e81611a64565b82525050565b61307d81611f2a565b82525050565b600082825260208201905092915050565b600061309f82612ada565b6130a98185613083565b93506130b9818560208601612af0565b6130c2816119b3565b840191505092915050565b60006060830160008301516130e56000860182613065565b5060208301516130f86020860182613074565b50604083015184820360408601526131108282613094565b9150508091505092915050565b60006060820190508181036000830152613137818661302c565b9050818103602083015261314b81856130cd565b905061315a6040830184611c1b565b949350505050565b61316b81611ec8565b811461317657600080fd5b50565b60008151905061318881613162565b92915050565b6000602082840312156131a4576131a36119a4565b5b60006131b284828501613179565b91505092915050565b7f44656c6567617461626c65436f72653a6361766561742d72656a656374656400600082015250565b60006131f1601f83612d31565b91506131fc826131bb565b602082019050919050565b60006020820190508181036000830152613220816131e4565b9050919050565b600061ffff82169050919050565b600061324082613227565b915061ffff820361325457613253612a63565b5b600182019050919050565b7f44656c6567617461626c65436f72653a696e76616c69642d64656c6567617465600082015250565b6000613295602083612d31565b91506132a08261325f565b602082019050919050565b600060208201905081810360008301526132c481613288565b9050919050565b7f44656c6567617461626c65436f72653a696e76616c69642d696e766f6361746960008201527f6f6e2d7461726765740000000000000000000000000000000000000000000000602082015250565b6000613327602983612d31565b9150613332826132cb565b604082019050919050565b600060208201905081810360008301526133568161331a565b9050919050565b7f44656c6567617461626c65436f72653a3a657865637574696f6e2d6661696c6560008201527f6400000000000000000000000000000000000000000000000000000000000000602082015250565b60006133b9602183612d31565b91506133c48261335d565b604082019050919050565b600060208201905081810360008301526133e8816133ac565b9050919050565b7f4f776e61626c653a2063616c6c6572206973206e6f7420746865206f776e6572600082015250565b6000613425602083612d31565b9150613430826133ef565b602082019050919050565b6000602082019050818103600083015261345481613418565b9050919050565b600060ff82169050919050565b60006134738261345b565b915061347e8361345b565b92508260ff0382111561349457613493612a63565b5b828201905092915050565b6134a88161345b565b82525050565b60006080820190506134c36000830187611c1b565b6134d0602083018661349f565b6134dd6040830185611c1b565b6134ea6060830184611c1b565b95945050505050565b60008160601b9050919050565b600061350b826134f3565b9050919050565b600061351d82613500565b9050919050565b61353561353082611a64565b613512565b82525050565b60006135478285612b23565b91506135538284613524565b6014820191508190509392505050565b600061356f8284612b23565b915081905092915050565b600081519050919050565b60006135908261357a565b61359a8185612d31565b93506135aa818560208601612af0565b6135b3816119b3565b840191505092915050565b600060208201905081810360008301526135d88184613585565b905092915050565b60006135f36135ee846127a3565b611a24565b90508281526020810184848401111561360f5761360e611aa7565b5b61361a848285612af0565b509392505050565b600082601f83011261363757613636611aa2565b5b81516136478482602086016135e0565b91505092915050565b600060208284031215613666576136656119a4565b5b600082015167ffffffffffffffff811115613684576136836119a9565b5b61369084828501613622565b9150509291505056fea26469706673582212206f34024f5bfbc4a900ef66daf89f4e632ec87d28ba6411cc63730f8ba06364e364736f6c634300080f0033",
			"opcodes": "PUSH1 0xA0 PUSH1 0x40 MSTORE CALLVALUE DUP1 ISZERO PUSH3 0x11 JUMPI PUSH1 0x0 DUP1 REVERT JUMPDEST POP PUSH1 0x40 MLOAD DUP1 PUSH1 0x40 ADD PUSH1 0x40 MSTORE DUP1 PUSH1 0x9 DUP2 MSTORE PUSH1 0x20 ADD PUSH32 0x416C6C6F774C6973740000000000000000000000000000000000000000000000 DUP2 MSTORE POP PUSH1 0x40 MLOAD DUP1 PUSH1 0x40 ADD PUSH1 0x40 MSTORE DUP1 PUSH1 0x1 DUP2 MSTORE PUSH1 0x20 ADD PUSH32 0x3100000000000000000000000000000000000000000000000000000000000000 DUP2 MSTORE POP PUSH3 0x92 DUP3 DUP3 CHAINID ADDRESS PUSH3 0xC1 PUSH1 0x20 SHL PUSH1 0x20 SHR JUMP JUMPDEST PUSH1 0x80 DUP2 DUP2 MSTORE POP POP POP POP PUSH3 0xBB PUSH3 0xAF PUSH3 0x131 PUSH1 0x20 SHL PUSH1 0x20 SHR JUMP JUMPDEST PUSH3 0x1E3 PUSH1 0x20 SHL PUSH1 0x20 SHR JUMP JUMPDEST PUSH3 0x381 JUMP JUMPDEST PUSH1 0x0 DUP1 PUSH32 0x8B73C3C69BB8FE3D512ECC4CF759CC79239F7B179B0FFACAA9A75D522B39400F DUP7 DUP1 MLOAD SWAP1 PUSH1 0x20 ADD KECCAK256 DUP7 DUP1 MLOAD SWAP1 PUSH1 0x20 ADD KECCAK256 DUP7 DUP7 PUSH1 0x40 MLOAD PUSH1 0x20 ADD PUSH3 0x10D SWAP6 SWAP5 SWAP4 SWAP3 SWAP2 SWAP1 PUSH3 0x324 JUMP JUMPDEST PUSH1 0x40 MLOAD PUSH1 0x20 DUP2 DUP4 SUB SUB DUP2 MSTORE SWAP1 PUSH1 0x40 MSTORE SWAP1 POP DUP1 DUP1 MLOAD SWAP1 PUSH1 0x20 ADD KECCAK256 SWAP2 POP POP SWAP5 SWAP4 POP POP POP POP JUMP JUMPDEST PUSH1 0x0 ADDRESS PUSH20 0xFFFFFFFFFFFFFFFFFFFFFFFFFFFFFFFFFFFFFFFF AND CALLER PUSH20 0xFFFFFFFFFFFFFFFFFFFFFFFFFFFFFFFFFFFFFFFF AND SUB PUSH3 0x1DC JUMPI PUSH1 0x0 DUP1 CALLDATASIZE DUP1 DUP1 PUSH1 0x1F ADD PUSH1 0x20 DUP1 SWAP2 DIV MUL PUSH1 0x20 ADD PUSH1 0x40 MLOAD SWAP1 DUP2 ADD PUSH1 0x40 MSTORE DUP1 SWAP4 SWAP3 SWAP2 SWAP1 DUP2 DUP2 MSTORE PUSH1 0x20 ADD DUP4 DUP4 DUP1 DUP3 DUP5 CALLDATACOPY PUSH1 0x0 DUP2 DUP5 ADD MSTORE PUSH1 0x1F NOT PUSH1 0x1F DUP3 ADD AND SWAP1 POP DUP1 DUP4 ADD SWAP3 POP POP POP POP POP POP POP SWAP1 POP PUSH1 0x0 DUP1 CALLDATASIZE SWAP1 POP SWAP1 POP PUSH20 0xFFFFFFFFFFFFFFFFFFFFFFFFFFFFFFFFFFFFFFFF DUP2 DUP4 ADD MLOAD AND SWAP3 POP POP POP PUSH3 0x1E0 JUMP JUMPDEST CALLER SWAP1 POP JUMPDEST SWAP1 JUMP JUMPDEST PUSH1 0x0 PUSH1 0x1 PUSH1 0x0 SWAP1 SLOAD SWAP1 PUSH2 0x100 EXP SWAP1 DIV PUSH20 0xFFFFFFFFFFFFFFFFFFFFFFFFFFFFFFFFFFFFFFFF AND SWAP1 POP DUP2 PUSH1 0x1 PUSH1 0x0 PUSH2 0x100 EXP DUP2 SLOAD DUP2 PUSH20 0xFFFFFFFFFFFFFFFFFFFFFFFFFFFFFFFFFFFFFFFF MUL NOT AND SWAP1 DUP4 PUSH20 0xFFFFFFFFFFFFFFFFFFFFFFFFFFFFFFFFFFFFFFFF AND MUL OR SWAP1 SSTORE POP DUP2 PUSH20 0xFFFFFFFFFFFFFFFFFFFFFFFFFFFFFFFFFFFFFFFF AND DUP2 PUSH20 0xFFFFFFFFFFFFFFFFFFFFFFFFFFFFFFFFFFFFFFFF AND PUSH32 0x8BE0079C531659141344CD1FD0A4F28419497F9722A3DAAFE3B4186F6B6457E0 PUSH1 0x40 MLOAD PUSH1 0x40 MLOAD DUP1 SWAP2 SUB SWAP1 LOG3 POP POP JUMP JUMPDEST PUSH1 0x0 DUP2 SWAP1 POP SWAP2 SWAP1 POP JUMP JUMPDEST PUSH3 0x2BE DUP2 PUSH3 0x2A9 JUMP JUMPDEST DUP3 MSTORE POP POP JUMP JUMPDEST PUSH1 0x0 DUP2 SWAP1 POP SWAP2 SWAP1 POP JUMP JUMPDEST PUSH3 0x2D9 DUP2 PUSH3 0x2C4 JUMP JUMPDEST DUP3 MSTORE POP POP JUMP JUMPDEST PUSH1 0x0 PUSH20 0xFFFFFFFFFFFFFFFFFFFFFFFFFFFFFFFFFFFFFFFF DUP3 AND SWAP1 POP SWAP2 SWAP1 POP JUMP JUMPDEST PUSH1 0x0 PUSH3 0x30C DUP3 PUSH3 0x2DF JUMP JUMPDEST SWAP1 POP SWAP2 SWAP1 POP JUMP JUMPDEST PUSH3 0x31E DUP2 PUSH3 0x2FF JUMP JUMPDEST DUP3 MSTORE POP POP JUMP JUMPDEST PUSH1 0x0 PUSH1 0xA0 DUP3 ADD SWAP1 POP PUSH3 0x33B PUSH1 0x0 DUP4 ADD DUP9 PUSH3 0x2B3 JUMP JUMPDEST PUSH3 0x34A PUSH1 0x20 DUP4 ADD DUP8 PUSH3 0x2B3 JUMP JUMPDEST PUSH3 0x359 PUSH1 0x40 DUP4 ADD DUP7 PUSH3 0x2B3 JUMP JUMPDEST PUSH3 0x368 PUSH1 0x60 DUP4 ADD DUP6 PUSH3 0x2CE JUMP JUMPDEST PUSH3 0x377 PUSH1 0x80 DUP4 ADD DUP5 PUSH3 0x313 JUMP JUMPDEST SWAP7 SWAP6 POP POP POP POP POP POP JUMP JUMPDEST PUSH1 0x80 MLOAD PUSH2 0x36CF PUSH3 0x3AB PUSH1 0x0 CODECOPY PUSH1 0x0 DUP2 DUP2 PUSH2 0x95C ADD MSTORE DUP2 DUP2 PUSH2 0xD1F ADD MSTORE PUSH2 0xF4B ADD MSTORE PUSH2 0x36CF PUSH1 0x0 RETURN INVALID PUSH1 0x80 PUSH1 0x40 MSTORE CALLVALUE DUP1 ISZERO PUSH2 0x10 JUMPI PUSH1 0x0 DUP1 REVERT JUMPDEST POP PUSH1 0x4 CALLDATASIZE LT PUSH2 0x18E JUMPI PUSH1 0x0 CALLDATALOAD PUSH1 0xE0 SHR DUP1 PUSH4 0x736F7CE7 GT PUSH2 0xDE JUMPI DUP1 PUSH4 0xA2E01F75 GT PUSH2 0x97 JUMPI DUP1 PUSH4 0xCACED6C5 GT PUSH2 0x71 JUMPI DUP1 PUSH4 0xCACED6C5 EQ PUSH2 0x553 JUMPI DUP1 PUSH4 0xD327C1EB EQ PUSH2 0x583 JUMPI DUP1 PUSH4 0xDFE86AC5 EQ PUSH2 0x5B3 JUMPI DUP1 PUSH4 0xF2FDE38B EQ PUSH2 0x5D1 JUMPI PUSH2 0x18E JUMP JUMPDEST DUP1 PUSH4 0xA2E01F75 EQ PUSH2 0x4D7 JUMPI DUP1 PUSH4 0xA5EAA1F1 EQ PUSH2 0x507 JUMPI DUP1 PUSH4 0xA7CD52CB EQ PUSH2 0x523 JUMPI PUSH2 0x18E JUMP JUMPDEST DUP1 PUSH4 0x736F7CE7 EQ PUSH2 0x3C9 JUMPI DUP1 PUSH4 0x7B577B58 EQ PUSH2 0x3F9 JUMPI DUP1 PUSH4 0x89535803 EQ PUSH2 0x429 JUMPI DUP1 PUSH4 0x8A04499E EQ PUSH2 0x459 JUMPI DUP1 PUSH4 0x8DA5CB5B EQ PUSH2 0x489 JUMPI DUP1 PUSH4 0x97182ED6 EQ PUSH2 0x4A7 JUMPI PUSH2 0x18E JUMP JUMPDEST DUP1 PUSH4 0x5CF1B24A GT PUSH2 0x14B JUMPI DUP1 PUSH4 0x6C2B1253 GT PUSH2 0x125 JUMPI DUP1 PUSH4 0x6C2B1253 EQ PUSH2 0x32F JUMPI DUP1 PUSH4 0x6F965803 EQ PUSH2 0x35F JUMPI DUP1 PUSH4 0x715018A6 EQ PUSH2 0x38F JUMPI DUP1 PUSH4 0x7234EEFE EQ PUSH2 0x399 JUMPI PUSH2 0x18E JUMP JUMPDEST DUP1 PUSH4 0x5CF1B24A EQ PUSH2 0x29F JUMPI DUP1 PUSH4 0x60B6D768 EQ PUSH2 0x2CF JUMPI DUP1 PUSH4 0x63A9C3D7 EQ PUSH2 0x2FF JUMPI PUSH2 0x18E JUMP JUMPDEST DUP1 PUSH4 0x8AAF6B0 EQ PUSH2 0x193 JUMPI DUP1 PUSH4 0x2F52A2FD EQ PUSH2 0x1C3 JUMPI DUP1 PUSH4 0x2FAD7EFC EQ PUSH2 0x1F3 JUMPI DUP1 PUSH4 0x3A481821 EQ PUSH2 0x223 JUMPI DUP1 PUSH4 0x3B7FA354 EQ PUSH2 0x253 JUMPI DUP1 PUSH4 0x5C6D9F0C EQ PUSH2 0x26F JUMPI JUMPDEST PUSH1 0x0 DUP1 REVERT JUMPDEST PUSH2 0x1AD PUSH1 0x4 DUP1 CALLDATASIZE SUB DUP2 ADD SWAP1 PUSH2 0x1A8 SWAP2 SWAP1 PUSH2 0x1BC8 JUMP JUMPDEST PUSH2 0x5ED JUMP JUMPDEST PUSH1 0x40 MLOAD PUSH2 0x1BA SWAP2 SWAP1 PUSH2 0x1C2A JUMP JUMPDEST PUSH1 0x40 MLOAD DUP1 SWAP2 SUB SWAP1 RETURN JUMPDEST PUSH2 0x1DD PUSH1 0x4 DUP1 CALLDATASIZE SUB DUP2 ADD SWAP1 PUSH2 0x1D8 SWAP2 SWAP1 PUSH2 0x1DD7 JUMP JUMPDEST PUSH2 0x655 JUMP JUMPDEST PUSH1 0x40 MLOAD PUSH2 0x1EA SWAP2 SWAP1 PUSH2 0x1C2A JUMP JUMPDEST PUSH1 0x40 MLOAD DUP1 SWAP2 SUB SWAP1 RETURN JUMPDEST PUSH2 0x20D PUSH1 0x4 DUP1 CALLDATASIZE SUB DUP2 ADD SWAP1 PUSH2 0x208 SWAP2 SWAP1 PUSH2 0x1E7B JUMP JUMPDEST PUSH2 0x6C4 JUMP JUMPDEST PUSH1 0x40 MLOAD PUSH2 0x21A SWAP2 SWAP1 PUSH2 0x1EE3 JUMP JUMPDEST PUSH1 0x40 MLOAD DUP1 SWAP2 SUB SWAP1 RETURN JUMPDEST PUSH2 0x23D PUSH1 0x4 DUP1 CALLDATASIZE SUB DUP2 ADD SWAP1 PUSH2 0x238 SWAP2 SWAP1 PUSH2 0x2286 JUMP JUMPDEST PUSH2 0x7AB JUMP JUMPDEST PUSH1 0x40 MLOAD PUSH2 0x24A SWAP2 SWAP1 PUSH2 0x1C2A JUMP JUMPDEST PUSH1 0x40 MLOAD DUP1 SWAP2 SUB SWAP1 RETURN JUMPDEST PUSH2 0x26D PUSH1 0x4 DUP1 CALLDATASIZE SUB DUP2 ADD SWAP1 PUSH2 0x268 SWAP2 SWAP1 PUSH2 0x22CF JUMP JUMPDEST PUSH2 0x82B JUMP JUMPDEST STOP JUMPDEST PUSH2 0x289 PUSH1 0x4 DUP1 CALLDATASIZE SUB DUP2 ADD SWAP1 PUSH2 0x284 SWAP2 SWAP1 PUSH2 0x2352 JUMP JUMPDEST PUSH2 0x8D1 JUMP JUMPDEST PUSH1 0x40 MLOAD PUSH2 0x296 SWAP2 SWAP1 PUSH2 0x1EE3 JUMP JUMPDEST PUSH1 0x40 MLOAD DUP1 SWAP2 SUB SWAP1 RETURN JUMPDEST PUSH2 0x2B9 PUSH1 0x4 DUP1 CALLDATASIZE SUB DUP2 ADD SWAP1 PUSH2 0x2B4 SWAP2 SWAP1 PUSH2 0x239F JUMP JUMPDEST PUSH2 0x8E6 JUMP JUMPDEST PUSH1 0x40 MLOAD PUSH2 0x2C6 SWAP2 SWAP1 PUSH2 0x1C2A JUMP JUMPDEST PUSH1 0x40 MLOAD DUP1 SWAP2 SUB SWAP1 RETURN JUMPDEST PUSH2 0x2E9 PUSH1 0x4 DUP1 CALLDATASIZE SUB DUP2 ADD SWAP1 PUSH2 0x2E4 SWAP2 SWAP1 PUSH2 0x24A4 JUMP JUMPDEST PUSH2 0x957 JUMP JUMPDEST PUSH1 0x40 MLOAD PUSH2 0x2F6 SWAP2 SWAP1 PUSH2 0x1C2A JUMP JUMPDEST PUSH1 0x40 MLOAD DUP1 SWAP2 SUB SWAP1 RETURN JUMPDEST PUSH2 0x319 PUSH1 0x4 DUP1 CALLDATASIZE SUB DUP2 ADD SWAP1 PUSH2 0x314 SWAP2 SWAP1 PUSH2 0x22CF JUMP JUMPDEST PUSH2 0x9B6 JUMP JUMPDEST PUSH1 0x40 MLOAD PUSH2 0x326 SWAP2 SWAP1 PUSH2 0x1EE3 JUMP JUMPDEST PUSH1 0x40 MLOAD DUP1 SWAP2 SUB SWAP1 RETURN JUMPDEST PUSH2 0x349 PUSH1 0x4 DUP1 CALLDATASIZE SUB DUP2 ADD SWAP1 PUSH2 0x344 SWAP2 SWAP1 PUSH2 0x24ED JUMP JUMPDEST PUSH2 0xA0C JUMP JUMPDEST PUSH1 0x40 MLOAD PUSH2 0x356 SWAP2 SWAP1 PUSH2 0x1C2A JUMP JUMPDEST PUSH1 0x40 MLOAD DUP1 SWAP2 SUB SWAP1 RETURN JUMPDEST PUSH2 0x379 PUSH1 0x4 DUP1 CALLDATASIZE SUB DUP2 ADD SWAP1 PUSH2 0x374 SWAP2 SWAP1 PUSH2 0x2536 JUMP JUMPDEST PUSH2 0xA7C JUMP JUMPDEST PUSH1 0x40 MLOAD PUSH2 0x386 SWAP2 SWAP1 PUSH2 0x1C2A JUMP JUMPDEST PUSH1 0x40 MLOAD DUP1 SWAP2 SUB SWAP1 RETURN JUMPDEST PUSH2 0x397 PUSH2 0xADD JUMP JUMPDEST STOP JUMPDEST PUSH2 0x3B3 PUSH1 0x4 DUP1 CALLDATASIZE SUB DUP2 ADD SWAP1 PUSH2 0x3AE SWAP2 SWAP1 PUSH2 0x24A4 JUMP JUMPDEST PUSH2 0xAF1 JUMP JUMPDEST PUSH1 0x40 MLOAD PUSH2 0x3C0 SWAP2 SWAP1 PUSH2 0x1C2A JUMP JUMPDEST PUSH1 0x40 MLOAD DUP1 SWAP2 SUB SWAP1 RETURN JUMPDEST PUSH2 0x3E3 PUSH1 0x4 DUP1 CALLDATASIZE SUB DUP2 ADD SWAP1 PUSH2 0x3DE SWAP2 SWAP1 PUSH2 0x2563 JUMP JUMPDEST PUSH2 0xB62 JUMP JUMPDEST PUSH1 0x40 MLOAD PUSH2 0x3F0 SWAP2 SWAP1 PUSH2 0x1C2A JUMP JUMPDEST PUSH1 0x40 MLOAD DUP1 SWAP2 SUB SWAP1 RETURN JUMPDEST PUSH2 0x413 PUSH1 0x4 DUP1 CALLDATASIZE SUB DUP2 ADD SWAP1 PUSH2 0x40E SWAP2 SWAP1 PUSH2 0x25AC JUMP JUMPDEST PUSH2 0xBE2 JUMP JUMPDEST PUSH1 0x40 MLOAD PUSH2 0x420 SWAP2 SWAP1 PUSH2 0x1C2A JUMP JUMPDEST PUSH1 0x40 MLOAD DUP1 SWAP2 SUB SWAP1 RETURN JUMPDEST PUSH2 0x443 PUSH1 0x4 DUP1 CALLDATASIZE SUB DUP2 ADD SWAP1 PUSH2 0x43E SWAP2 SWAP1 PUSH2 0x25F5 JUMP JUMPDEST PUSH2 0xC62 JUMP JUMPDEST PUSH1 0x40 MLOAD PUSH2 0x450 SWAP2 SWAP1 PUSH2 0x2644 JUMP JUMPDEST PUSH1 0x40 MLOAD DUP1 SWAP2 SUB SWAP1 RETURN JUMPDEST PUSH2 0x473 PUSH1 0x4 DUP1 CALLDATASIZE SUB DUP2 ADD SWAP1 PUSH2 0x46E SWAP2 SWAP1 PUSH2 0x24ED JUMP JUMPDEST PUSH2 0xCBC JUMP JUMPDEST PUSH1 0x40 MLOAD PUSH2 0x480 SWAP2 SWAP1 PUSH2 0x266E JUMP JUMPDEST PUSH1 0x40 MLOAD DUP1 SWAP2 SUB SWAP1 RETURN JUMPDEST PUSH2 0x491 PUSH2 0xCF0 JUMP JUMPDEST PUSH1 0x40 MLOAD PUSH2 0x49E SWAP2 SWAP1 PUSH2 0x266E JUMP JUMPDEST PUSH1 0x40 MLOAD DUP1 SWAP2 SUB SWAP1 RETURN JUMPDEST PUSH2 0x4C1 PUSH1 0x4 DUP1 CALLDATASIZE SUB DUP2 ADD SWAP1 PUSH2 0x4BC SWAP2 SWAP1 PUSH2 0x1DD7 JUMP JUMPDEST PUSH2 0xD1A JUMP JUMPDEST PUSH1 0x40 MLOAD PUSH2 0x4CE SWAP2 SWAP1 PUSH2 0x1C2A JUMP JUMPDEST PUSH1 0x40 MLOAD DUP1 SWAP2 SUB SWAP1 RETURN JUMPDEST PUSH2 0x4F1 PUSH1 0x4 DUP1 CALLDATASIZE SUB DUP2 ADD SWAP1 PUSH2 0x4EC SWAP2 SWAP1 PUSH2 0x2689 JUMP JUMPDEST PUSH2 0xD79 JUMP JUMPDEST PUSH1 0x40 MLOAD PUSH2 0x4FE SWAP2 SWAP1 PUSH2 0x1C2A JUMP JUMPDEST PUSH1 0x40 MLOAD DUP1 SWAP2 SUB SWAP1 RETURN JUMPDEST PUSH2 0x521 PUSH1 0x4 DUP1 CALLDATASIZE SUB DUP2 ADD SWAP1 PUSH2 0x51C SWAP2 SWAP1 PUSH2 0x22CF JUMP JUMPDEST PUSH2 0xDE7 JUMP JUMPDEST STOP JUMPDEST PUSH2 0x53D PUSH1 0x4 DUP1 CALLDATASIZE SUB DUP2 ADD SWAP1 PUSH2 0x538 SWAP2 SWAP1 PUSH2 0x22CF JUMP JUMPDEST PUSH2 0xE8D JUMP JUMPDEST PUSH1 0x40 MLOAD PUSH2 0x54A SWAP2 SWAP1 PUSH2 0x1EE3 JUMP JUMPDEST PUSH1 0x40 MLOAD DUP1 SWAP2 SUB SWAP1 RETURN JUMPDEST PUSH2 0x56D PUSH1 0x4 DUP1 CALLDATASIZE SUB DUP2 ADD SWAP1 PUSH2 0x568 SWAP2 SWAP1 PUSH2 0x275A JUMP JUMPDEST PUSH2 0xEAD JUMP JUMPDEST PUSH1 0x40 MLOAD PUSH2 0x57A SWAP2 SWAP1 PUSH2 0x266E JUMP JUMPDEST PUSH1 0x40 MLOAD DUP1 SWAP2 SUB SWAP1 RETURN JUMPDEST PUSH2 0x59D PUSH1 0x4 DUP1 CALLDATASIZE SUB DUP2 ADD SWAP1 PUSH2 0x598 SWAP2 SWAP1 PUSH2 0x2844 JUMP JUMPDEST PUSH2 0xEDB JUMP JUMPDEST PUSH1 0x40 MLOAD PUSH2 0x5AA SWAP2 SWAP1 PUSH2 0x1C2A JUMP JUMPDEST PUSH1 0x40 MLOAD DUP1 SWAP2 SUB SWAP1 RETURN JUMPDEST PUSH2 0x5BB PUSH2 0xF49 JUMP JUMPDEST PUSH1 0x40 MLOAD PUSH2 0x5C8 SWAP2 SWAP1 PUSH2 0x1C2A JUMP JUMPDEST PUSH1 0x40 MLOAD DUP1 SWAP2 SUB SWAP1 RETURN JUMPDEST PUSH2 0x5EB PUSH1 0x4 DUP1 CALLDATASIZE SUB DUP2 ADD SWAP1 PUSH2 0x5E6 SWAP2 SWAP1 PUSH2 0x22CF JUMP JUMPDEST PUSH2 0xF6D JUMP JUMPDEST STOP JUMPDEST PUSH1 0x0 DUP1 PUSH32 0x80AD7E1B04EE6D994A125F4714CA0720908BD80ED16063EC8AEE4B88E9253E2D DUP4 PUSH1 0x0 ADD MLOAD DUP5 PUSH1 0x20 ADD MLOAD DUP1 MLOAD SWAP1 PUSH1 0x20 ADD KECCAK256 PUSH1 0x40 MLOAD PUSH1 0x20 ADD PUSH2 0x634 SWAP4 SWAP3 SWAP2 SWAP1 PUSH2 0x28E3 JUMP JUMPDEST PUSH1 0x40 MLOAD PUSH1 0x20 DUP2 DUP4 SUB SUB DUP2 MSTORE SWAP1 PUSH1 0x40 MSTORE SWAP1 POP DUP1 DUP1 MLOAD SWAP1 PUSH1 0x20 ADD KECCAK256 SWAP2 POP POP SWAP2 SWAP1 POP JUMP JUMPDEST PUSH1 0x0 DUP1 PUSH32 0x409F5114779A253E700D775D7845E6EFC1E83685AC59868D2DF3D4DE51C7D621 DUP4 PUSH1 0x0 ADD MLOAD DUP5 PUSH1 0x20 ADD MLOAD PUSH2 0x690 DUP7 PUSH1 0x40 ADD MLOAD PUSH2 0xBE2 JUMP JUMPDEST PUSH1 0x40 MLOAD PUSH1 0x20 ADD PUSH2 0x6A3 SWAP5 SWAP4 SWAP3 SWAP2 SWAP1 PUSH2 0x291A JUMP JUMPDEST PUSH1 0x40 MLOAD PUSH1 0x20 DUP2 DUP4 SUB SUB DUP2 MSTORE SWAP1 PUSH1 0x40 MSTORE SWAP1 POP DUP1 DUP1 MLOAD SWAP1 PUSH1 0x20 ADD KECCAK256 SWAP2 POP POP SWAP2 SWAP1 POP JUMP JUMPDEST PUSH1 0x0 DUP1 PUSH1 0x0 SWAP1 POP JUMPDEST DUP4 DUP4 SWAP1 POP DUP2 LT ISZERO PUSH2 0x7A4 JUMPI CALLDATASIZE DUP5 DUP5 DUP4 DUP2 DUP2 LT PUSH2 0x6EB JUMPI PUSH2 0x6EA PUSH2 0x295F JUMP JUMPDEST JUMPDEST SWAP1 POP PUSH1 0x20 MUL DUP2 ADD SWAP1 PUSH2 0x6FD SWAP2 SWAP1 PUSH2 0x299D JUMP JUMPDEST SWAP1 POP PUSH1 0x0 PUSH2 0x713 DUP3 PUSH2 0x70E SWAP1 PUSH2 0x29C5 JUMP JUMPDEST PUSH2 0xEAD JUMP JUMPDEST SWAP1 POP PUSH2 0x765 DUP2 DUP8 DUP8 DUP7 DUP2 DUP2 LT PUSH2 0x72C JUMPI PUSH2 0x72B PUSH2 0x295F JUMP JUMPDEST JUMPDEST SWAP1 POP PUSH1 0x20 MUL DUP2 ADD SWAP1 PUSH2 0x73E SWAP2 SWAP1 PUSH2 0x299D JUMP JUMPDEST DUP1 PUSH1 0x0 ADD SWAP1 PUSH2 0x74D SWAP2 SWAP1 PUSH2 0x29D8 JUMP JUMPDEST PUSH1 0x20 ADD DUP1 CALLDATASIZE SUB DUP2 ADD SWAP1 PUSH2 0x760 SWAP2 SWAP1 PUSH2 0x2536 JUMP JUMPDEST PUSH2 0xFF0 JUMP JUMPDEST PUSH2 0x78D DUP3 DUP1 PUSH1 0x0 ADD SWAP1 PUSH2 0x778 SWAP2 SWAP1 PUSH2 0x29D8 JUMP JUMPDEST DUP1 PUSH1 0x0 ADD SWAP1 PUSH2 0x787 SWAP2 SWAP1 PUSH2 0x2A00 JUMP JUMPDEST DUP4 PUSH2 0x10F9 JUMP JUMPDEST SWAP4 POP POP POP DUP1 DUP1 PUSH2 0x79C SWAP1 PUSH2 0x2A92 JUMP JUMPDEST SWAP2 POP POP PUSH2 0x6CC JUMP JUMPDEST POP SWAP3 SWAP2 POP POP JUMP JUMPDEST PUSH1 0x0 PUSH1 0x60 PUSH1 0x0 JUMPDEST DUP4 MLOAD DUP2 LT ISZERO PUSH2 0x814 JUMPI DUP2 PUSH2 0x7DF DUP6 DUP4 DUP2 MLOAD DUP2 LT PUSH2 0x7D2 JUMPI PUSH2 0x7D1 PUSH2 0x295F JUMP JUMPDEST JUMPDEST PUSH1 0x20 MUL PUSH1 0x20 ADD ADD MLOAD PUSH2 0x8E6 JUMP JUMPDEST PUSH1 0x40 MLOAD PUSH1 0x20 ADD PUSH2 0x7F0 SWAP3 SWAP2 SWAP1 PUSH2 0x2B75 JUMP JUMPDEST PUSH1 0x40 MLOAD PUSH1 0x20 DUP2 DUP4 SUB SUB DUP2 MSTORE SWAP1 PUSH1 0x40 MSTORE SWAP2 POP DUP1 DUP1 PUSH2 0x80C SWAP1 PUSH2 0x2A92 JUMP JUMPDEST SWAP2 POP POP PUSH2 0x7B2 JUMP JUMPDEST POP PUSH1 0x0 DUP2 DUP1 MLOAD SWAP1 PUSH1 0x20 ADD KECCAK256 SWAP1 POP DUP1 SWAP3 POP POP POP SWAP2 SWAP1 POP JUMP JUMPDEST PUSH2 0x833 PUSH2 0x153E JUMP JUMPDEST PUSH1 0x1 PUSH1 0x2 PUSH1 0x0 DUP4 PUSH20 0xFFFFFFFFFFFFFFFFFFFFFFFFFFFFFFFFFFFFFFFF AND PUSH20 0xFFFFFFFFFFFFFFFFFFFFFFFFFFFFFFFFFFFFFFFF AND DUP2 MSTORE PUSH1 0x20 ADD SWAP1 DUP2 MSTORE PUSH1 0x20 ADD PUSH1 0x0 KECCAK256 PUSH1 0x0 PUSH2 0x100 EXP DUP2 SLOAD DUP2 PUSH1 0xFF MUL NOT AND SWAP1 DUP4 ISZERO ISZERO MUL OR SWAP1 SSTORE POP DUP1 PUSH20 0xFFFFFFFFFFFFFFFFFFFFFFFFFFFFFFFFFFFFFFFF AND PUSH32 0x7A5825F7334F92CDBEA53B71AEC79402B67BF59AF4F6D8F261E11266CC8C6503 PUSH1 0x40 MLOAD PUSH1 0x40 MLOAD DUP1 SWAP2 SUB SWAP1 LOG2 POP JUMP JUMPDEST PUSH1 0x0 PUSH2 0x8DE DUP4 DUP4 CALLER PUSH2 0x10F9 JUMP JUMPDEST SWAP1 POP SWAP3 SWAP2 POP POP JUMP JUMPDEST PUSH1 0x0 DUP1 PUSH32 0xD97DD99B404D177890F06A8F0FC8E5ED0333FB2EBB6684360709066E8984F594 PUSH2 0x917 DUP5 PUSH1 0x0 ADD MLOAD PUSH2 0xD79 JUMP JUMPDEST PUSH2 0x924 DUP6 PUSH1 0x20 ADD MLOAD PUSH2 0xB62 JUMP JUMPDEST PUSH1 0x40 MLOAD PUSH1 0x20 ADD PUSH2 0x936 SWAP4 SWAP3 SWAP2 SWAP1 PUSH2 0x2B9D JUMP JUMPDEST PUSH1 0x40 MLOAD PUSH1 0x20 DUP2 DUP4 SUB SUB DUP2 MSTORE SWAP1 PUSH1 0x40 MSTORE SWAP1 POP DUP1 DUP1 MLOAD SWAP1 PUSH1 0x20 ADD KECCAK256 SWAP2 POP POP SWAP2 SWAP1 POP JUMP JUMPDEST PUSH1 0x0 DUP1 PUSH32 0x0 PUSH2 0x984 DUP5 PUSH2 0xAF1 JUMP JUMPDEST PUSH1 0x40 MLOAD PUSH1 0x20 ADD PUSH2 0x995 SWAP3 SWAP2 SWAP1 PUSH2 0x2C2B JUMP JUMPDEST PUSH1 0x40 MLOAD PUSH1 0x20 DUP2 DUP4 SUB SUB DUP2 MSTORE SWAP1 PUSH1 0x40 MSTORE DUP1 MLOAD SWAP1 PUSH1 0x20 ADD KECCAK256 SWAP1 POP DUP1 SWAP2 POP POP SWAP2 SWAP1 POP JUMP JUMPDEST PUSH1 0x0 PUSH1 0x2 PUSH1 0x0 DUP4 PUSH20 0xFFFFFFFFFFFFFFFFFFFFFFFFFFFFFFFFFFFFFFFF AND PUSH20 0xFFFFFFFFFFFFFFFFFFFFFFFFFFFFFFFFFFFFFFFF AND DUP2 MSTORE PUSH1 0x20 ADD SWAP1 DUP2 MSTORE PUSH1 0x20 ADD PUSH1 0x0 KECCAK256 PUSH1 0x0 SWAP1 SLOAD SWAP1 PUSH2 0x100 EXP SWAP1 DIV PUSH1 0xFF AND SWAP1 POP SWAP2 SWAP1 POP JUMP JUMPDEST PUSH1 0x0 DUP1 PUSH32 0x3C36A06E1D288B0F94F565588317A46AD11BC3C96992109F9A2365A2737259A7 PUSH2 0xA3D DUP5 PUSH1 0x0 ADD MLOAD PUSH2 0x655 JUMP JUMPDEST DUP5 PUSH1 0x20 ADD MLOAD DUP1 MLOAD SWAP1 PUSH1 0x20 ADD KECCAK256 PUSH1 0x40 MLOAD PUSH1 0x20 ADD PUSH2 0xA5B SWAP4 SWAP3 SWAP2 SWAP1 PUSH2 0x2B9D JUMP JUMPDEST PUSH1 0x40 MLOAD PUSH1 0x20 DUP2 DUP4 SUB SUB DUP2 MSTORE SWAP1 PUSH1 0x40 MSTORE SWAP1 POP DUP1 DUP1 MLOAD SWAP1 PUSH1 0x20 ADD KECCAK256 SWAP2 POP POP SWAP2 SWAP1 POP JUMP JUMPDEST PUSH1 0x0 DUP1 PUSH32 0xE8D3D963B33868FB116316BC3FD55E8F49123F30E4418F71E140D54B7CD3B2B9 DUP4 PUSH1 0x0 ADD MLOAD DUP5 PUSH1 0x20 ADD MLOAD PUSH1 0x40 MLOAD PUSH1 0x20 ADD PUSH2 0xABC SWAP4 SWAP3 SWAP2 SWAP1 PUSH2 0x2C62 JUMP JUMPDEST PUSH1 0x40 MLOAD PUSH1 0x20 DUP2 DUP4 SUB SUB DUP2 MSTORE SWAP1 PUSH1 0x40 MSTORE SWAP1 POP DUP1 DUP1 MLOAD SWAP1 PUSH1 0x20 ADD KECCAK256 SWAP2 POP POP SWAP2 SWAP1 POP JUMP JUMPDEST PUSH2 0xAE5 PUSH2 0x153E JUMP JUMPDEST PUSH2 0xAEF PUSH1 0x0 PUSH2 0x15BC JUMP JUMPDEST JUMP JUMPDEST PUSH1 0x0 DUP1 PUSH32 0x8C69A206C06F5334B35CEB1186181A713B21AFF02CF66285F375084FBEF2EB8 PUSH2 0xB22 DUP5 PUSH1 0x0 ADD MLOAD PUSH2 0x7AB JUMP JUMPDEST PUSH2 0xB2F DUP6 PUSH1 0x20 ADD MLOAD PUSH2 0xA7C JUMP JUMPDEST PUSH1 0x40 MLOAD PUSH1 0x20 ADD PUSH2 0xB41 SWAP4 SWAP3 SWAP2 SWAP1 PUSH2 0x2B9D JUMP JUMPDEST PUSH1 0x40 MLOAD PUSH1 0x20 DUP2 DUP4 SUB SUB DUP2 MSTORE SWAP1 PUSH1 0x40 MSTORE SWAP1 POP DUP1 DUP1 MLOAD SWAP1 PUSH1 0x20 ADD KECCAK256 SWAP2 POP POP SWAP2 SWAP1 POP JUMP JUMPDEST PUSH1 0x0 PUSH1 0x60 PUSH1 0x0 JUMPDEST DUP4 MLOAD DUP2 LT ISZERO PUSH2 0xBCB JUMPI DUP2 PUSH2 0xB96 DUP6 DUP4 DUP2 MLOAD DUP2 LT PUSH2 0xB89 JUMPI PUSH2 0xB88 PUSH2 0x295F JUMP JUMPDEST JUMPDEST PUSH1 0x20 MUL PUSH1 0x20 ADD ADD MLOAD PUSH2 0xA0C JUMP JUMPDEST PUSH1 0x40 MLOAD PUSH1 0x20 ADD PUSH2 0xBA7 SWAP3 SWAP2 SWAP1 PUSH2 0x2B75 JUMP JUMPDEST PUSH1 0x40 MLOAD PUSH1 0x20 DUP2 DUP4 SUB SUB DUP2 MSTORE SWAP1 PUSH1 0x40 MSTORE SWAP2 POP DUP1 DUP1 PUSH2 0xBC3 SWAP1 PUSH2 0x2A92 JUMP JUMPDEST SWAP2 POP POP PUSH2 0xB69 JUMP JUMPDEST POP PUSH1 0x0 DUP2 DUP1 MLOAD SWAP1 PUSH1 0x20 ADD KECCAK256 SWAP1 POP DUP1 SWAP3 POP POP POP SWAP2 SWAP1 POP JUMP JUMPDEST PUSH1 0x0 PUSH1 0x60 PUSH1 0x0 JUMPDEST DUP4 MLOAD DUP2 LT ISZERO PUSH2 0xC4B JUMPI DUP2 PUSH2 0xC16 DUP6 DUP4 DUP2 MLOAD DUP2 LT PUSH2 0xC09 JUMPI PUSH2 0xC08 PUSH2 0x295F JUMP JUMPDEST JUMPDEST PUSH1 0x20 MUL PUSH1 0x20 ADD ADD MLOAD PUSH2 0x5ED JUMP JUMPDEST PUSH1 0x40 MLOAD PUSH1 0x20 ADD PUSH2 0xC27 SWAP3 SWAP2 SWAP1 PUSH2 0x2B75 JUMP JUMPDEST PUSH1 0x40 MLOAD PUSH1 0x20 DUP2 DUP4 SUB SUB DUP2 MSTORE SWAP1 PUSH1 0x40 MSTORE SWAP2 POP DUP1 DUP1 PUSH2 0xC43 SWAP1 PUSH2 0x2A92 JUMP JUMPDEST SWAP2 POP POP PUSH2 0xBE9 JUMP JUMPDEST POP PUSH1 0x0 DUP2 DUP1 MLOAD SWAP1 PUSH1 0x20 ADD KECCAK256 SWAP1 POP DUP1 SWAP3 POP POP POP SWAP2 SWAP1 POP JUMP JUMPDEST PUSH1 0x0 DUP1 PUSH1 0x0 DUP5 PUSH20 0xFFFFFFFFFFFFFFFFFFFFFFFFFFFFFFFFFFFFFFFF AND PUSH20 0xFFFFFFFFFFFFFFFFFFFFFFFFFFFFFFFFFFFFFFFF AND DUP2 MSTORE PUSH1 0x20 ADD SWAP1 DUP2 MSTORE PUSH1 0x20 ADD PUSH1 0x0 KECCAK256 PUSH1 0x0 DUP4 DUP2 MSTORE PUSH1 0x20 ADD SWAP1 DUP2 MSTORE PUSH1 0x20 ADD PUSH1 0x0 KECCAK256 SLOAD SWAP1 POP SWAP3 SWAP2 POP POP JUMP JUMPDEST PUSH1 0x0 DUP1 DUP3 PUSH1 0x0 ADD MLOAD SWAP1 POP PUSH1 0x0 PUSH2 0xCD1 DUP3 PUSH2 0xD1A JUMP JUMPDEST SWAP1 POP PUSH1 0x0 PUSH2 0xCE3 DUP3 DUP7 PUSH1 0x20 ADD MLOAD PUSH2 0x1682 JUMP JUMPDEST SWAP1 POP DUP1 SWAP4 POP POP POP POP SWAP2 SWAP1 POP JUMP JUMPDEST PUSH1 0x0 PUSH1 0x1 PUSH1 0x0 SWAP1 SLOAD SWAP1 PUSH2 0x100 EXP SWAP1 DIV PUSH20 0xFFFFFFFFFFFFFFFFFFFFFFFFFFFFFFFFFFFFFFFF AND SWAP1 POP SWAP1 JUMP JUMPDEST PUSH1 0x0 DUP1 PUSH32 0x0 PUSH2 0xD47 DUP5 PUSH2 0x655 JUMP JUMPDEST PUSH1 0x40 MLOAD PUSH1 0x20 ADD PUSH2 0xD58 SWAP3 SWAP2 SWAP1 PUSH2 0x2C2B JUMP JUMPDEST PUSH1 0x40 MLOAD PUSH1 0x20 DUP2 DUP4 SUB SUB DUP2 MSTORE SWAP1 PUSH1 0x40 MSTORE DUP1 MLOAD SWAP1 PUSH1 0x20 ADD KECCAK256 SWAP1 POP DUP1 SWAP2 POP POP SWAP2 SWAP1 POP JUMP JUMPDEST PUSH1 0x0 DUP1 PUSH32 0xB16DFDB3B8FA033FE30AC976CD4A50AD256B6811C80D90FCD0B323EEC190047D DUP4 PUSH1 0x0 ADD MLOAD DUP5 PUSH1 0x20 ADD MLOAD DUP6 PUSH1 0x40 ADD MLOAD DUP1 MLOAD SWAP1 PUSH1 0x20 ADD KECCAK256 PUSH1 0x40 MLOAD PUSH1 0x20 ADD PUSH2 0xDC6 SWAP5 SWAP4 SWAP3 SWAP2 SWAP1 PUSH2 0x2C99 JUMP JUMPDEST PUSH1 0x40 MLOAD PUSH1 0x20 DUP2 DUP4 SUB SUB DUP2 MSTORE SWAP1 PUSH1 0x40 MSTORE SWAP1 POP DUP1 DUP1 MLOAD SWAP1 PUSH1 0x20 ADD KECCAK256 SWAP2 POP POP SWAP2 SWAP1 POP JUMP JUMPDEST PUSH2 0xDEF PUSH2 0x153E JUMP JUMPDEST PUSH1 0x0 PUSH1 0x2 PUSH1 0x0 DUP4 PUSH20 0xFFFFFFFFFFFFFFFFFFFFFFFFFFFFFFFFFFFFFFFF AND PUSH20 0xFFFFFFFFFFFFFFFFFFFFFFFFFFFFFFFFFFFFFFFF AND DUP2 MSTORE PUSH1 0x20 ADD SWAP1 DUP2 MSTORE PUSH1 0x20 ADD PUSH1 0x0 KECCAK256 PUSH1 0x0 PUSH2 0x100 EXP DUP2 SLOAD DUP2 PUSH1 0xFF MUL NOT AND SWAP1 DUP4 ISZERO ISZERO MUL OR SWAP1 SSTORE POP DUP1 PUSH20 0xFFFFFFFFFFFFFFFFFFFFFFFFFFFFFFFFFFFFFFFF AND PUSH32 0x7E298992E49C38AE84B996BD3DABA51048BC3A270795A3DD186FD8AB6E7D1FF5 PUSH1 0x40 MLOAD PUSH1 0x40 MLOAD DUP1 SWAP2 SUB SWAP1 LOG2 POP JUMP JUMPDEST PUSH1 0x2 PUSH1 0x20 MSTORE DUP1 PUSH1 0x0 MSTORE PUSH1 0x40 PUSH1 0x0 KECCAK256 PUSH1 0x0 SWAP2 POP SLOAD SWAP1 PUSH2 0x100 EXP SWAP1 DIV PUSH1 0xFF AND DUP2 JUMP JUMPDEST PUSH1 0x0 DUP1 PUSH2 0xEBD DUP4 PUSH1 0x0 ADD MLOAD PUSH2 0x957 JUMP JUMPDEST SWAP1 POP PUSH1 0x0 PUSH2 0xECF DUP3 DUP6 PUSH1 0x20 ADD MLOAD PUSH2 0x1682 JUMP JUMPDEST SWAP1 POP DUP1 SWAP3 POP POP POP SWAP2 SWAP1 POP JUMP JUMPDEST PUSH1 0x0 DUP1 PUSH32 0x8B73C3C69BB8FE3D512ECC4CF759CC79239F7B179B0FFACAA9A75D522B39400F DUP7 DUP1 MLOAD SWAP1 PUSH1 0x20 ADD KECCAK256 DUP7 DUP1 MLOAD SWAP1 PUSH1 0x20 ADD KECCAK256 DUP7 DUP7 PUSH1 0x40 MLOAD PUSH1 0x20 ADD PUSH2 0xF25 SWAP6 SWAP5 SWAP4 SWAP3 SWAP2 SWAP1 PUSH2 0x2CDE JUMP JUMPDEST PUSH1 0x40 MLOAD PUSH1 0x20 DUP2 DUP4 SUB SUB DUP2 MSTORE SWAP1 PUSH1 0x40 MSTORE SWAP1 POP DUP1 DUP1 MLOAD SWAP1 PUSH1 0x20 ADD KECCAK256 SWAP2 POP POP SWAP5 SWAP4 POP POP POP POP JUMP JUMPDEST PUSH32 0x0 DUP2 JUMP JUMPDEST PUSH2 0xF75 PUSH2 0x153E JUMP JUMPDEST PUSH1 0x0 PUSH20 0xFFFFFFFFFFFFFFFFFFFFFFFFFFFFFFFFFFFFFFFF AND DUP2 PUSH20 0xFFFFFFFFFFFFFFFFFFFFFFFFFFFFFFFFFFFFFFFF AND SUB PUSH2 0xFE4 JUMPI PUSH1 0x40 MLOAD PUSH32 0x8C379A000000000000000000000000000000000000000000000000000000000 DUP2 MSTORE PUSH1 0x4 ADD PUSH2 0xFDB SWAP1 PUSH2 0x2DB4 JUMP JUMPDEST PUSH1 0x40 MLOAD DUP1 SWAP2 SUB SWAP1 REVERT JUMPDEST PUSH2 0xFED DUP2 PUSH2 0x15BC JUMP JUMPDEST POP JUMP JUMPDEST PUSH1 0x0 DUP2 PUSH1 0x20 ADD MLOAD SWAP1 POP PUSH1 0x0 DUP3 PUSH1 0x0 ADD MLOAD SWAP1 POP PUSH1 0x1 PUSH1 0x0 DUP1 DUP7 PUSH20 0xFFFFFFFFFFFFFFFFFFFFFFFFFFFFFFFFFFFFFFFF AND PUSH20 0xFFFFFFFFFFFFFFFFFFFFFFFFFFFFFFFFFFFFFFFF AND DUP2 MSTORE PUSH1 0x20 ADD SWAP1 DUP2 MSTORE PUSH1 0x20 ADD PUSH1 0x0 KECCAK256 PUSH1 0x0 DUP5 DUP2 MSTORE PUSH1 0x20 ADD SWAP1 DUP2 MSTORE PUSH1 0x20 ADD PUSH1 0x0 KECCAK256 SLOAD PUSH2 0x105E SWAP2 SWAP1 PUSH2 0x2DD4 JUMP JUMPDEST DUP2 EQ PUSH2 0x109F JUMPI PUSH1 0x40 MLOAD PUSH32 0x8C379A000000000000000000000000000000000000000000000000000000000 DUP2 MSTORE PUSH1 0x4 ADD PUSH2 0x1096 SWAP1 PUSH2 0x2E9C JUMP JUMPDEST PUSH1 0x40 MLOAD DUP1 SWAP2 SUB SWAP1 REVERT JUMPDEST DUP1 PUSH1 0x0 DUP1 DUP7 PUSH20 0xFFFFFFFFFFFFFFFFFFFFFFFFFFFFFFFFFFFFFFFF AND PUSH20 0xFFFFFFFFFFFFFFFFFFFFFFFFFFFFFFFFFFFFFFFF AND DUP2 MSTORE PUSH1 0x20 ADD SWAP1 DUP2 MSTORE PUSH1 0x20 ADD PUSH1 0x0 KECCAK256 PUSH1 0x0 DUP5 DUP2 MSTORE PUSH1 0x20 ADD SWAP1 DUP2 MSTORE PUSH1 0x20 ADD PUSH1 0x0 KECCAK256 DUP2 SWAP1 SSTORE POP POP POP POP POP JUMP JUMPDEST PUSH1 0x0 DUP1 PUSH1 0x0 SWAP1 POP JUMPDEST DUP5 DUP5 SWAP1 POP DUP2 LT ISZERO PUSH2 0x1536 JUMPI PUSH1 0x0 DUP6 DUP6 DUP4 DUP2 DUP2 LT PUSH2 0x1121 JUMPI PUSH2 0x1120 PUSH2 0x295F JUMP JUMPDEST JUMPDEST SWAP1 POP PUSH1 0x20 MUL DUP2 ADD SWAP1 PUSH2 0x1133 SWAP2 SWAP1 PUSH2 0x2EBC JUMP JUMPDEST PUSH2 0x113C SWAP1 PUSH2 0x2EE4 JUMP JUMPDEST SWAP1 POP PUSH1 0x0 DUP1 PUSH1 0x0 DUP4 PUSH1 0x20 ADD MLOAD MLOAD SUB PUSH2 0x1155 JUMPI DUP6 SWAP2 POP DUP2 SWAP1 POP JUMPDEST PUSH1 0x0 DUP1 PUSH1 0x0 SHL SWAP1 POP PUSH1 0x0 JUMPDEST DUP5 PUSH1 0x20 ADD MLOAD MLOAD DUP2 LT ISZERO PUSH2 0x13DA JUMPI PUSH1 0x0 DUP6 PUSH1 0x20 ADD MLOAD DUP3 DUP2 MLOAD DUP2 LT PUSH2 0x1186 JUMPI PUSH2 0x1185 PUSH2 0x295F JUMP JUMPDEST JUMPDEST PUSH1 0x20 MUL PUSH1 0x20 ADD ADD MLOAD SWAP1 POP PUSH1 0x0 PUSH2 0x119B DUP3 PUSH2 0xCBC JUMP JUMPDEST SWAP1 POP PUSH1 0x0 DUP4 SUB PUSH2 0x11AC JUMPI DUP1 SWAP6 POP DUP6 SWAP5 POP JUMPDEST DUP5 PUSH20 0xFFFFFFFFFFFFFFFFFFFFFFFFFFFFFFFFFFFFFFFF AND DUP2 PUSH20 0xFFFFFFFFFFFFFFFFFFFFFFFFFFFFFFFFFFFFFFFF AND EQ PUSH2 0x121A JUMPI PUSH1 0x40 MLOAD PUSH32 0x8C379A000000000000000000000000000000000000000000000000000000000 DUP2 MSTORE PUSH1 0x4 ADD PUSH2 0x1211 SWAP1 PUSH2 0x2F69 JUMP JUMPDEST PUSH1 0x40 MLOAD DUP1 SWAP2 SUB SWAP1 REVERT JUMPDEST PUSH1 0x0 DUP3 PUSH1 0x0 ADD MLOAD SWAP1 POP DUP5 DUP2 PUSH1 0x20 ADD MLOAD EQ PUSH2 0x1269 JUMPI PUSH1 0x40 MLOAD PUSH32 0x8C379A000000000000000000000000000000000000000000000000000000000 DUP2 MSTORE PUSH1 0x4 ADD PUSH2 0x1260 SWAP1 PUSH2 0x2FFB JUMP JUMPDEST PUSH1 0x40 MLOAD DUP1 SWAP2 SUB SWAP1 REVERT JUMPDEST PUSH1 0x0 PUSH2 0x1274 DUP5 PUSH2 0xA0C JUMP JUMPDEST SWAP1 POP PUSH1 0x0 JUMPDEST DUP3 PUSH1 0x40 ADD MLOAD MLOAD DUP2 PUSH2 0xFFFF AND LT ISZERO PUSH2 0x13B8 JUMPI PUSH1 0x0 DUP4 PUSH1 0x40 ADD MLOAD DUP3 PUSH2 0xFFFF AND DUP2 MLOAD DUP2 LT PUSH2 0x12A7 JUMPI PUSH2 0x12A6 PUSH2 0x295F JUMP JUMPDEST JUMPDEST PUSH1 0x20 MUL PUSH1 0x20 ADD ADD MLOAD PUSH1 0x0 ADD MLOAD SWAP1 POP PUSH1 0x0 DUP2 PUSH20 0xFFFFFFFFFFFFFFFFFFFFFFFFFFFFFFFFFFFFFFFF AND PUSH4 0x5068DE4C DUP7 PUSH1 0x40 ADD MLOAD DUP6 PUSH2 0xFFFF AND DUP2 MLOAD DUP2 LT PUSH2 0x12EE JUMPI PUSH2 0x12ED PUSH2 0x295F JUMP JUMPDEST JUMPDEST PUSH1 0x20 MUL PUSH1 0x20 ADD ADD MLOAD PUSH1 0x20 ADD MLOAD DUP15 PUSH1 0x0 ADD MLOAD DUP8 PUSH1 0x40 MLOAD DUP5 PUSH4 0xFFFFFFFF AND PUSH1 0xE0 SHL DUP2 MSTORE PUSH1 0x4 ADD PUSH2 0x131E SWAP4 SWAP3 SWAP2 SWAP1 PUSH2 0x311D JUMP JUMPDEST PUSH1 0x20 PUSH1 0x40 MLOAD DUP1 DUP4 SUB DUP2 PUSH1 0x0 DUP8 GAS CALL ISZERO DUP1 ISZERO PUSH2 0x133D JUMPI RETURNDATASIZE PUSH1 0x0 DUP1 RETURNDATACOPY RETURNDATASIZE PUSH1 0x0 REVERT JUMPDEST POP POP POP POP PUSH1 0x40 MLOAD RETURNDATASIZE PUSH1 0x1F NOT PUSH1 0x1F DUP3 ADD AND DUP3 ADD DUP1 PUSH1 0x40 MSTORE POP DUP2 ADD SWAP1 PUSH2 0x1361 SWAP2 SWAP1 PUSH2 0x318E JUMP JUMPDEST SWAP1 POP DUP1 PUSH2 0x13A3 JUMPI PUSH1 0x40 MLOAD PUSH32 0x8C379A000000000000000000000000000000000000000000000000000000000 DUP2 MSTORE PUSH1 0x4 ADD PUSH2 0x139A SWAP1 PUSH2 0x3207 JUMP JUMPDEST PUSH1 0x40 MLOAD DUP1 SWAP2 SUB SWAP1 REVERT JUMPDEST POP POP DUP1 DUP1 PUSH2 0x13B0 SWAP1 PUSH2 0x3235 JUMP JUMPDEST SWAP2 POP POP PUSH2 0x1279 JUMP JUMPDEST POP DUP1 SWAP6 POP DUP2 PUSH1 0x0 ADD MLOAD SWAP7 POP POP POP POP POP DUP1 DUP1 PUSH2 0x13D2 SWAP1 PUSH2 0x2A92 JUMP JUMPDEST SWAP2 POP POP PUSH2 0x1160 JUMP JUMPDEST POP DUP7 PUSH20 0xFFFFFFFFFFFFFFFFFFFFFFFFFFFFFFFFFFFFFFFF AND DUP3 PUSH20 0xFFFFFFFFFFFFFFFFFFFFFFFFFFFFFFFFFFFFFFFF AND EQ PUSH2 0x1449 JUMPI PUSH1 0x40 MLOAD PUSH32 0x8C379A000000000000000000000000000000000000000000000000000000000 DUP2 MSTORE PUSH1 0x4 ADD PUSH2 0x1440 SWAP1 PUSH2 0x32AB JUMP JUMPDEST PUSH1 0x40 MLOAD DUP1 SWAP2 SUB SWAP1 REVERT JUMPDEST PUSH1 0x0 DUP5 PUSH1 0x0 ADD MLOAD SWAP1 POP ADDRESS PUSH20 0xFFFFFFFFFFFFFFFFFFFFFFFFFFFFFFFFFFFFFFFF AND DUP2 PUSH1 0x0 ADD MLOAD PUSH20 0xFFFFFFFFFFFFFFFFFFFFFFFFFFFFFFFFFFFFFFFF AND EQ PUSH2 0x14C4 JUMPI PUSH1 0x40 MLOAD PUSH32 0x8C379A000000000000000000000000000000000000000000000000000000000 DUP2 MSTORE PUSH1 0x4 ADD PUSH2 0x14BB SWAP1 PUSH2 0x333D JUMP JUMPDEST PUSH1 0x40 MLOAD DUP1 SWAP2 SUB SWAP1 REVERT JUMPDEST PUSH2 0x14DC DUP2 PUSH1 0x0 ADD MLOAD DUP3 PUSH1 0x40 ADD MLOAD DUP4 PUSH1 0x20 ADD MLOAD DUP8 PUSH2 0x1755 JUMP JUMPDEST SWAP7 POP DUP7 PUSH2 0x151E JUMPI PUSH1 0x40 MLOAD PUSH32 0x8C379A000000000000000000000000000000000000000000000000000000000 DUP2 MSTORE PUSH1 0x4 ADD PUSH2 0x1515 SWAP1 PUSH2 0x33CF JUMP JUMPDEST PUSH1 0x40 MLOAD DUP1 SWAP2 SUB SWAP1 REVERT JUMPDEST POP POP POP POP POP DUP1 DUP1 PUSH2 0x152E SWAP1 PUSH2 0x2A92 JUMP JUMPDEST SWAP2 POP POP PUSH2 0x1101 JUMP JUMPDEST POP SWAP4 SWAP3 POP POP POP JUMP JUMPDEST PUSH2 0x1546 PUSH2 0x188E JUMP JUMPDEST PUSH20 0xFFFFFFFFFFFFFFFFFFFFFFFFFFFFFFFFFFFFFFFF AND PUSH2 0x1564 PUSH2 0xCF0 JUMP JUMPDEST PUSH20 0xFFFFFFFFFFFFFFFFFFFFFFFFFFFFFFFFFFFFFFFF AND EQ PUSH2 0x15BA JUMPI PUSH1 0x40 MLOAD PUSH32 0x8C379A000000000000000000000000000000000000000000000000000000000 DUP2 MSTORE PUSH1 0x4 ADD PUSH2 0x15B1 SWAP1 PUSH2 0x343B JUMP JUMPDEST PUSH1 0x40 MLOAD DUP1 SWAP2 SUB SWAP1 REVERT JUMPDEST JUMP JUMPDEST PUSH1 0x0 PUSH1 0x1 PUSH1 0x0 SWAP1 SLOAD SWAP1 PUSH2 0x100 EXP SWAP1 DIV PUSH20 0xFFFFFFFFFFFFFFFFFFFFFFFFFFFFFFFFFFFFFFFF AND SWAP1 POP DUP2 PUSH1 0x1 PUSH1 0x0 PUSH2 0x100 EXP DUP2 SLOAD DUP2 PUSH20 0xFFFFFFFFFFFFFFFFFFFFFFFFFFFFFFFFFFFFFFFF MUL NOT AND SWAP1 DUP4 PUSH20 0xFFFFFFFFFFFFFFFFFFFFFFFFFFFFFFFFFFFFFFFF AND MUL OR SWAP1 SSTORE POP DUP2 PUSH20 0xFFFFFFFFFFFFFFFFFFFFFFFFFFFFFFFFFFFFFFFF AND DUP2 PUSH20 0xFFFFFFFFFFFFFFFFFFFFFFFFFFFFFFFFFFFFFFFF AND PUSH32 0x8BE0079C531659141344CD1FD0A4F28419497F9722A3DAAFE3B4186F6B6457E0 PUSH1 0x40 MLOAD PUSH1 0x40 MLOAD DUP1 SWAP2 SUB SWAP1 LOG3 POP POP JUMP JUMPDEST PUSH1 0x0 DUP1 PUSH1 0x0 DUP1 PUSH1 0x41 DUP6 MLOAD EQ PUSH2 0x169D JUMPI PUSH1 0x0 SWAP4 POP POP POP POP PUSH2 0x174F JUMP JUMPDEST PUSH1 0x20 DUP6 ADD MLOAD SWAP3 POP PUSH1 0x40 DUP6 ADD MLOAD SWAP2 POP PUSH1 0x60 DUP6 ADD MLOAD PUSH1 0x0 BYTE SWAP1 POP PUSH1 0x1B DUP2 PUSH1 0xFF AND LT ISZERO PUSH2 0x16D1 JUMPI PUSH1 0x1B DUP2 PUSH2 0x16CE SWAP2 SWAP1 PUSH2 0x3468 JUMP JUMPDEST SWAP1 POP JUMPDEST PUSH1 0x1B DUP2 PUSH1 0xFF AND EQ ISZERO DUP1 ISZERO PUSH2 0x16E9 JUMPI POP PUSH1 0x1C DUP2 PUSH1 0xFF AND EQ ISZERO JUMPDEST ISZERO PUSH2 0x16FA JUMPI PUSH1 0x0 SWAP4 POP POP POP POP PUSH2 0x174F JUMP JUMPDEST PUSH1 0x1 DUP7 DUP3 DUP6 DUP6 PUSH1 0x40 MLOAD PUSH1 0x0 DUP2 MSTORE PUSH1 0x20 ADD PUSH1 0x40 MSTORE PUSH1 0x40 MLOAD PUSH2 0x171D SWAP5 SWAP4 SWAP3 SWAP2 SWAP1 PUSH2 0x34AE JUMP JUMPDEST PUSH1 0x20 PUSH1 0x40 MLOAD PUSH1 0x20 DUP2 SUB SWAP1 DUP1 DUP5 SUB SWAP1 DUP6 GAS STATICCALL ISZERO DUP1 ISZERO PUSH2 0x173F JUMPI RETURNDATASIZE PUSH1 0x0 DUP1 RETURNDATACOPY RETURNDATASIZE PUSH1 0x0 REVERT JUMPDEST POP POP POP PUSH1 0x20 PUSH1 0x40 MLOAD SUB MLOAD SWAP4 POP POP POP POP JUMPDEST SWAP3 SWAP2 POP POP JUMP JUMPDEST PUSH1 0x0 DUP1 DUP5 DUP4 PUSH1 0x40 MLOAD PUSH1 0x20 ADD PUSH2 0x176B SWAP3 SWAP2 SWAP1 PUSH2 0x353B JUMP JUMPDEST PUSH1 0x40 MLOAD PUSH1 0x20 DUP2 DUP4 SUB SUB DUP2 MSTORE SWAP1 PUSH1 0x40 MSTORE SWAP1 POP PUSH1 0x60 DUP7 PUSH20 0xFFFFFFFFFFFFFFFFFFFFFFFFFFFFFFFFFFFFFFFF AND DUP6 DUP4 PUSH1 0x40 MLOAD PUSH2 0x17A4 SWAP2 SWAP1 PUSH2 0x3563 JUMP JUMPDEST PUSH1 0x0 PUSH1 0x40 MLOAD DUP1 DUP4 SUB DUP2 PUSH1 0x0 DUP8 DUP8 CALL SWAP3 POP POP POP RETURNDATASIZE DUP1 PUSH1 0x0 DUP2 EQ PUSH2 0x17E2 JUMPI PUSH1 0x40 MLOAD SWAP2 POP PUSH1 0x1F NOT PUSH1 0x3F RETURNDATASIZE ADD AND DUP3 ADD PUSH1 0x40 MSTORE RETURNDATASIZE DUP3 MSTORE RETURNDATASIZE PUSH1 0x0 PUSH1 0x20 DUP5 ADD RETURNDATACOPY PUSH2 0x17E7 JUMP JUMPDEST PUSH1 0x60 SWAP2 POP JUMPDEST POP DUP1 SWAP3 POP DUP2 SWAP5 POP POP POP DUP3 PUSH2 0x1884 JUMPI PUSH1 0x0 DUP2 MLOAD GT ISZERO PUSH2 0x1849 JUMPI PUSH1 0x0 PUSH2 0x180A DUP3 PUSH2 0x193E JUMP JUMPDEST SWAP1 POP DUP1 PUSH1 0x40 MLOAD PUSH32 0x8C379A000000000000000000000000000000000000000000000000000000000 DUP2 MSTORE PUSH1 0x4 ADD PUSH2 0x1840 SWAP2 SWAP1 PUSH2 0x35BE JUMP JUMPDEST PUSH1 0x40 MLOAD DUP1 SWAP2 SUB SWAP1 REVERT JUMPDEST PUSH1 0x40 MLOAD PUSH32 0x8C379A000000000000000000000000000000000000000000000000000000000 DUP2 MSTORE PUSH1 0x4 ADD PUSH2 0x187B SWAP1 PUSH2 0x33CF JUMP JUMPDEST PUSH1 0x40 MLOAD DUP1 SWAP2 SUB SWAP1 REVERT JUMPDEST POP POP SWAP5 SWAP4 POP POP POP POP JUMP JUMPDEST PUSH1 0x0 ADDRESS PUSH20 0xFFFFFFFFFFFFFFFFFFFFFFFFFFFFFFFFFFFFFFFF AND CALLER PUSH20 0xFFFFFFFFFFFFFFFFFFFFFFFFFFFFFFFFFFFFFFFF AND SUB PUSH2 0x1937 JUMPI PUSH1 0x0 DUP1 CALLDATASIZE DUP1 DUP1 PUSH1 0x1F ADD PUSH1 0x20 DUP1 SWAP2 DIV MUL PUSH1 0x20 ADD PUSH1 0x40 MLOAD SWAP1 DUP2 ADD PUSH1 0x40 MSTORE DUP1 SWAP4 SWAP3 SWAP2 SWAP1 DUP2 DUP2 MSTORE PUSH1 0x20 ADD DUP4 DUP4 DUP1 DUP3 DUP5 CALLDATACOPY PUSH1 0x0 DUP2 DUP5 ADD MSTORE PUSH1 0x1F NOT PUSH1 0x1F DUP3 ADD AND SWAP1 POP DUP1 DUP4 ADD SWAP3 POP POP POP POP POP POP POP SWAP1 POP PUSH1 0x0 DUP1 CALLDATASIZE SWAP1 POP SWAP1 POP PUSH20 0xFFFFFFFFFFFFFFFFFFFFFFFFFFFFFFFFFFFFFFFF DUP2 DUP4 ADD MLOAD AND SWAP3 POP POP POP PUSH2 0x193B JUMP JUMPDEST CALLER SWAP1 POP JUMPDEST SWAP1 JUMP JUMPDEST PUSH1 0x60 PUSH1 0x0 DUP3 MLOAD SWAP1 POP PUSH1 0x44 DUP2 LT ISZERO PUSH2 0x1967 JUMPI PUSH1 0x40 MLOAD DUP1 PUSH1 0x20 ADD PUSH1 0x40 MSTORE DUP1 PUSH1 0x0 DUP2 MSTORE POP SWAP2 POP POP PUSH2 0x1995 JUMP JUMPDEST PUSH1 0x0 PUSH1 0x4 DUP5 ADD SWAP4 POP DUP4 MLOAD SWAP1 POP PUSH1 0x4 DUP3 SUB DUP5 MSTORE DUP4 DUP1 PUSH1 0x20 ADD SWAP1 MLOAD DUP2 ADD SWAP1 PUSH2 0x198D SWAP2 SWAP1 PUSH2 0x3650 JUMP JUMPDEST SWAP3 POP DUP1 DUP5 MSTORE POP POP JUMPDEST SWAP2 SWAP1 POP JUMP JUMPDEST PUSH1 0x0 PUSH1 0x40 MLOAD SWAP1 POP SWAP1 JUMP JUMPDEST PUSH1 0x0 DUP1 REVERT JUMPDEST PUSH1 0x0 DUP1 REVERT JUMPDEST PUSH1 0x0 DUP1 REVERT JUMPDEST PUSH1 0x0 PUSH1 0x1F NOT PUSH1 0x1F DUP4 ADD AND SWAP1 POP SWAP2 SWAP1 POP JUMP JUMPDEST PUSH32 0x4E487B7100000000000000000000000000000000000000000000000000000000 PUSH1 0x0 MSTORE PUSH1 0x41 PUSH1 0x4 MSTORE PUSH1 0x24 PUSH1 0x0 REVERT JUMPDEST PUSH2 0x19FC DUP3 PUSH2 0x19B3 JUMP JUMPDEST DUP2 ADD DUP2 DUP2 LT PUSH8 0xFFFFFFFFFFFFFFFF DUP3 GT OR ISZERO PUSH2 0x1A1B JUMPI PUSH2 0x1A1A PUSH2 0x19C4 JUMP JUMPDEST JUMPDEST DUP1 PUSH1 0x40 MSTORE POP POP POP JUMP JUMPDEST PUSH1 0x0 PUSH2 0x1A2E PUSH2 0x199A JUMP JUMPDEST SWAP1 POP PUSH2 0x1A3A DUP3 DUP3 PUSH2 0x19F3 JUMP JUMPDEST SWAP2 SWAP1 POP JUMP JUMPDEST PUSH1 0x0 DUP1 REVERT JUMPDEST PUSH1 0x0 PUSH20 0xFFFFFFFFFFFFFFFFFFFFFFFFFFFFFFFFFFFFFFFF DUP3 AND SWAP1 POP SWAP2 SWAP1 POP JUMP JUMPDEST PUSH1 0x0 PUSH2 0x1A6F DUP3 PUSH2 0x1A44 JUMP JUMPDEST SWAP1 POP SWAP2 SWAP1 POP JUMP JUMPDEST PUSH2 0x1A7F DUP2 PUSH2 0x1A64 JUMP JUMPDEST DUP2 EQ PUSH2 0x1A8A JUMPI PUSH1 0x0 DUP1 REVERT JUMPDEST POP JUMP JUMPDEST PUSH1 0x0 DUP2 CALLDATALOAD SWAP1 POP PUSH2 0x1A9C DUP2 PUSH2 0x1A76 JUMP JUMPDEST SWAP3 SWAP2 POP POP JUMP JUMPDEST PUSH1 0x0 DUP1 REVERT JUMPDEST PUSH1 0x0 DUP1 REVERT JUMPDEST PUSH1 0x0 PUSH8 0xFFFFFFFFFFFFFFFF DUP3 GT ISZERO PUSH2 0x1AC7 JUMPI PUSH2 0x1AC6 PUSH2 0x19C4 JUMP JUMPDEST JUMPDEST PUSH2 0x1AD0 DUP3 PUSH2 0x19B3 JUMP JUMPDEST SWAP1 POP PUSH1 0x20 DUP2 ADD SWAP1 POP SWAP2 SWAP1 POP JUMP JUMPDEST DUP3 DUP2 DUP4 CALLDATACOPY PUSH1 0x0 DUP4 DUP4 ADD MSTORE POP POP POP JUMP JUMPDEST PUSH1 0x0 PUSH2 0x1AFF PUSH2 0x1AFA DUP5 PUSH2 0x1AAC JUMP JUMPDEST PUSH2 0x1A24 JUMP JUMPDEST SWAP1 POP DUP3 DUP2 MSTORE PUSH1 0x20 DUP2 ADD DUP5 DUP5 DUP5 ADD GT ISZERO PUSH2 0x1B1B JUMPI PUSH2 0x1B1A PUSH2 0x1AA7 JUMP JUMPDEST JUMPDEST PUSH2 0x1B26 DUP5 DUP3 DUP6 PUSH2 0x1ADD JUMP JUMPDEST POP SWAP4 SWAP3 POP POP POP JUMP JUMPDEST PUSH1 0x0 DUP3 PUSH1 0x1F DUP4 ADD SLT PUSH2 0x1B43 JUMPI PUSH2 0x1B42 PUSH2 0x1AA2 JUMP JUMPDEST JUMPDEST DUP2 CALLDATALOAD PUSH2 0x1B53 DUP5 DUP3 PUSH1 0x20 DUP7 ADD PUSH2 0x1AEC JUMP JUMPDEST SWAP2 POP POP SWAP3 SWAP2 POP POP JUMP JUMPDEST PUSH1 0x0 PUSH1 0x40 DUP3 DUP5 SUB SLT ISZERO PUSH2 0x1B72 JUMPI PUSH2 0x1B71 PUSH2 0x19AE JUMP JUMPDEST JUMPDEST PUSH2 0x1B7C PUSH1 0x40 PUSH2 0x1A24 JUMP JUMPDEST SWAP1 POP PUSH1 0x0 PUSH2 0x1B8C DUP5 DUP3 DUP6 ADD PUSH2 0x1A8D JUMP JUMPDEST PUSH1 0x0 DUP4 ADD MSTORE POP PUSH1 0x20 DUP3 ADD CALLDATALOAD PUSH8 0xFFFFFFFFFFFFFFFF DUP2 GT ISZERO PUSH2 0x1BB0 JUMPI PUSH2 0x1BAF PUSH2 0x1A3F JUMP JUMPDEST JUMPDEST PUSH2 0x1BBC DUP5 DUP3 DUP6 ADD PUSH2 0x1B2E JUMP JUMPDEST PUSH1 0x20 DUP4 ADD MSTORE POP SWAP3 SWAP2 POP POP JUMP JUMPDEST PUSH1 0x0 PUSH1 0x20 DUP3 DUP5 SUB SLT ISZERO PUSH2 0x1BDE JUMPI PUSH2 0x1BDD PUSH2 0x19A4 JUMP JUMPDEST JUMPDEST PUSH1 0x0 DUP3 ADD CALLDATALOAD PUSH8 0xFFFFFFFFFFFFFFFF DUP2 GT ISZERO PUSH2 0x1BFC JUMPI PUSH2 0x1BFB PUSH2 0x19A9 JUMP JUMPDEST JUMPDEST PUSH2 0x1C08 DUP5 DUP3 DUP6 ADD PUSH2 0x1B5C JUMP JUMPDEST SWAP2 POP POP SWAP3 SWAP2 POP POP JUMP JUMPDEST PUSH1 0x0 DUP2 SWAP1 POP SWAP2 SWAP1 POP JUMP JUMPDEST PUSH2 0x1C24 DUP2 PUSH2 0x1C11 JUMP JUMPDEST DUP3 MSTORE POP POP JUMP JUMPDEST PUSH1 0x0 PUSH1 0x20 DUP3 ADD SWAP1 POP PUSH2 0x1C3F PUSH1 0x0 DUP4 ADD DUP5 PUSH2 0x1C1B JUMP JUMPDEST SWAP3 SWAP2 POP POP JUMP JUMPDEST PUSH2 0x1C4E DUP2 PUSH2 0x1C11 JUMP JUMPDEST DUP2 EQ PUSH2 0x1C59 JUMPI PUSH1 0x0 DUP1 REVERT JUMPDEST POP JUMP JUMPDEST PUSH1 0x0 DUP2 CALLDATALOAD SWAP1 POP PUSH2 0x1C6B DUP2 PUSH2 0x1C45 JUMP JUMPDEST SWAP3 SWAP2 POP POP JUMP JUMPDEST PUSH1 0x0 PUSH8 0xFFFFFFFFFFFFFFFF DUP3 GT ISZERO PUSH2 0x1C8C JUMPI PUSH2 0x1C8B PUSH2 0x19C4 JUMP JUMPDEST JUMPDEST PUSH1 0x20 DUP3 MUL SWAP1 POP PUSH1 0x20 DUP2 ADD SWAP1 POP SWAP2 SWAP1 POP JUMP JUMPDEST PUSH1 0x0 DUP1 REVERT JUMPDEST PUSH1 0x0 PUSH2 0x1CB5 PUSH2 0x1CB0 DUP5 PUSH2 0x1C71 JUMP JUMPDEST PUSH2 0x1A24 JUMP JUMPDEST SWAP1 POP DUP1 DUP4 DUP3 MSTORE PUSH1 0x20 DUP3 ADD SWAP1 POP PUSH1 0x20 DUP5 MUL DUP4 ADD DUP6 DUP2 GT ISZERO PUSH2 0x1CD8 JUMPI PUSH2 0x1CD7 PUSH2 0x1C9D JUMP JUMPDEST JUMPDEST DUP4 JUMPDEST DUP2 DUP2 LT ISZERO PUSH2 0x1D1F JUMPI DUP1 CALLDATALOAD PUSH8 0xFFFFFFFFFFFFFFFF DUP2 GT ISZERO PUSH2 0x1CFD JUMPI PUSH2 0x1CFC PUSH2 0x1AA2 JUMP JUMPDEST JUMPDEST DUP1 DUP7 ADD PUSH2 0x1D0A DUP10 DUP3 PUSH2 0x1B5C JUMP JUMPDEST DUP6 MSTORE PUSH1 0x20 DUP6 ADD SWAP5 POP POP POP PUSH1 0x20 DUP2 ADD SWAP1 POP PUSH2 0x1CDA JUMP JUMPDEST POP POP POP SWAP4 SWAP3 POP POP POP JUMP JUMPDEST PUSH1 0x0 DUP3 PUSH1 0x1F DUP4 ADD SLT PUSH2 0x1D3E JUMPI PUSH2 0x1D3D PUSH2 0x1AA2 JUMP JUMPDEST JUMPDEST DUP2 CALLDATALOAD PUSH2 0x1D4E DUP5 DUP3 PUSH1 0x20 DUP7 ADD PUSH2 0x1CA2 JUMP JUMPDEST SWAP2 POP POP SWAP3 SWAP2 POP POP JUMP JUMPDEST PUSH1 0x0 PUSH1 0x60 DUP3 DUP5 SUB SLT ISZERO PUSH2 0x1D6D JUMPI PUSH2 0x1D6C PUSH2 0x19AE JUMP JUMPDEST JUMPDEST PUSH2 0x1D77 PUSH1 0x60 PUSH2 0x1A24 JUMP JUMPDEST SWAP1 POP PUSH1 0x0 PUSH2 0x1D87 DUP5 DUP3 DUP6 ADD PUSH2 0x1A8D JUMP JUMPDEST PUSH1 0x0 DUP4 ADD MSTORE POP PUSH1 0x20 PUSH2 0x1D9B DUP5 DUP3 DUP6 ADD PUSH2 0x1C5C JUMP JUMPDEST PUSH1 0x20 DUP4 ADD MSTORE POP PUSH1 0x40 DUP3 ADD CALLDATALOAD PUSH8 0xFFFFFFFFFFFFFFFF DUP2 GT ISZERO PUSH2 0x1DBF JUMPI PUSH2 0x1DBE PUSH2 0x1A3F JUMP JUMPDEST JUMPDEST PUSH2 0x1DCB DUP5 DUP3 DUP6 ADD PUSH2 0x1D29 JUMP JUMPDEST PUSH1 0x40 DUP4 ADD MSTORE POP SWAP3 SWAP2 POP POP JUMP JUMPDEST PUSH1 0x0 PUSH1 0x20 DUP3 DUP5 SUB SLT ISZERO PUSH2 0x1DED JUMPI PUSH2 0x1DEC PUSH2 0x19A4 JUMP JUMPDEST JUMPDEST PUSH1 0x0 DUP3 ADD CALLDATALOAD PUSH8 0xFFFFFFFFFFFFFFFF DUP2 GT ISZERO PUSH2 0x1E0B JUMPI PUSH2 0x1E0A PUSH2 0x19A9 JUMP JUMPDEST JUMPDEST PUSH2 0x1E17 DUP5 DUP3 DUP6 ADD PUSH2 0x1D57 JUMP JUMPDEST SWAP2 POP POP SWAP3 SWAP2 POP POP JUMP JUMPDEST PUSH1 0x0 DUP1 REVERT JUMPDEST PUSH1 0x0 DUP1 DUP4 PUSH1 0x1F DUP5 ADD SLT PUSH2 0x1E3B JUMPI PUSH2 0x1E3A PUSH2 0x1AA2 JUMP JUMPDEST JUMPDEST DUP3 CALLDATALOAD SWAP1 POP PUSH8 0xFFFFFFFFFFFFFFFF DUP2 GT ISZERO PUSH2 0x1E58 JUMPI PUSH2 0x1E57 PUSH2 0x1E20 JUMP JUMPDEST JUMPDEST PUSH1 0x20 DUP4 ADD SWAP2 POP DUP4 PUSH1 0x20 DUP3 MUL DUP4 ADD GT ISZERO PUSH2 0x1E74 JUMPI PUSH2 0x1E73 PUSH2 0x1C9D JUMP JUMPDEST JUMPDEST SWAP3 POP SWAP3 SWAP1 POP JUMP JUMPDEST PUSH1 0x0 DUP1 PUSH1 0x20 DUP4 DUP6 SUB SLT ISZERO PUSH2 0x1E92 JUMPI PUSH2 0x1E91 PUSH2 0x19A4 JUMP JUMPDEST JUMPDEST PUSH1 0x0 DUP4 ADD CALLDATALOAD PUSH8 0xFFFFFFFFFFFFFFFF DUP2 GT ISZERO PUSH2 0x1EB0 JUMPI PUSH2 0x1EAF PUSH2 0x19A9 JUMP JUMPDEST JUMPDEST PUSH2 0x1EBC DUP6 DUP3 DUP7 ADD PUSH2 0x1E25 JUMP JUMPDEST SWAP3 POP SWAP3 POP POP SWAP3 POP SWAP3 SWAP1 POP JUMP JUMPDEST PUSH1 0x0 DUP2 ISZERO ISZERO SWAP1 POP SWAP2 SWAP1 POP JUMP JUMPDEST PUSH2 0x1EDD DUP2 PUSH2 0x1EC8 JUMP JUMPDEST DUP3 MSTORE POP POP JUMP JUMPDEST PUSH1 0x0 PUSH1 0x20 DUP3 ADD SWAP1 POP PUSH2 0x1EF8 PUSH1 0x0 DUP4 ADD DUP5 PUSH2 0x1ED4 JUMP JUMPDEST SWAP3 SWAP2 POP POP JUMP JUMPDEST PUSH1 0x0 PUSH8 0xFFFFFFFFFFFFFFFF DUP3 GT ISZERO PUSH2 0x1F19 JUMPI PUSH2 0x1F18 PUSH2 0x19C4 JUMP JUMPDEST JUMPDEST PUSH1 0x20 DUP3 MUL SWAP1 POP PUSH1 0x20 DUP2 ADD SWAP1 POP SWAP2 SWAP1 POP JUMP JUMPDEST PUSH1 0x0 DUP2 SWAP1 POP SWAP2 SWAP1 POP JUMP JUMPDEST PUSH2 0x1F3D DUP2 PUSH2 0x1F2A JUMP JUMPDEST DUP2 EQ PUSH2 0x1F48 JUMPI PUSH1 0x0 DUP1 REVERT JUMPDEST POP JUMP JUMPDEST PUSH1 0x0 DUP2 CALLDATALOAD SWAP1 POP PUSH2 0x1F5A DUP2 PUSH2 0x1F34 JUMP JUMPDEST SWAP3 SWAP2 POP POP JUMP JUMPDEST PUSH1 0x0 PUSH1 0x60 DUP3 DUP5 SUB SLT ISZERO PUSH2 0x1F76 JUMPI PUSH2 0x1F75 PUSH2 0x19AE JUMP JUMPDEST JUMPDEST PUSH2 0x1F80 PUSH1 0x60 PUSH2 0x1A24 JUMP JUMPDEST SWAP1 POP PUSH1 0x0 PUSH2 0x1F90 DUP5 DUP3 DUP6 ADD PUSH2 0x1A8D JUMP JUMPDEST PUSH1 0x0 DUP4 ADD MSTORE POP PUSH1 0x20 PUSH2 0x1FA4 DUP5 DUP3 DUP6 ADD PUSH2 0x1F4B JUMP JUMPDEST PUSH1 0x20 DUP4 ADD MSTORE POP PUSH1 0x40 DUP3 ADD CALLDATALOAD PUSH8 0xFFFFFFFFFFFFFFFF DUP2 GT ISZERO PUSH2 0x1FC8 JUMPI PUSH2 0x1FC7 PUSH2 0x1A3F JUMP JUMPDEST JUMPDEST PUSH2 0x1FD4 DUP5 DUP3 DUP6 ADD PUSH2 0x1B2E JUMP JUMPDEST PUSH1 0x40 DUP4 ADD MSTORE POP SWAP3 SWAP2 POP POP JUMP JUMPDEST PUSH1 0x0 PUSH8 0xFFFFFFFFFFFFFFFF DUP3 GT ISZERO PUSH2 0x1FFB JUMPI PUSH2 0x1FFA PUSH2 0x19C4 JUMP JUMPDEST JUMPDEST PUSH1 0x20 DUP3 MUL SWAP1 POP PUSH1 0x20 DUP2 ADD SWAP1 POP SWAP2 SWAP1 POP JUMP JUMPDEST PUSH1 0x0 PUSH1 0x40 DUP3 DUP5 SUB SLT ISZERO PUSH2 0x2022 JUMPI PUSH2 0x2021 PUSH2 0x19AE JUMP JUMPDEST JUMPDEST PUSH2 0x202C PUSH1 0x40 PUSH2 0x1A24 JUMP JUMPDEST SWAP1 POP PUSH1 0x0 DUP3 ADD CALLDATALOAD PUSH8 0xFFFFFFFFFFFFFFFF DUP2 GT ISZERO PUSH2 0x204C JUMPI PUSH2 0x204B PUSH2 0x1A3F JUMP JUMPDEST JUMPDEST PUSH2 0x2058 DUP5 DUP3 DUP6 ADD PUSH2 0x1D57 JUMP JUMPDEST PUSH1 0x0 DUP4 ADD MSTORE POP PUSH1 0x20 DUP3 ADD CALLDATALOAD PUSH8 0xFFFFFFFFFFFFFFFF DUP2 GT ISZERO PUSH2 0x207C JUMPI PUSH2 0x207B PUSH2 0x1A3F JUMP JUMPDEST JUMPDEST PUSH2 0x2088 DUP5 DUP3 DUP6 ADD PUSH2 0x1B2E JUMP JUMPDEST PUSH1 0x20 DUP4 ADD MSTORE POP SWAP3 SWAP2 POP POP JUMP JUMPDEST PUSH1 0x0 PUSH2 0x20A7 PUSH2 0x20A2 DUP5 PUSH2 0x1FE0 JUMP JUMPDEST PUSH2 0x1A24 JUMP JUMPDEST SWAP1 POP DUP1 DUP4 DUP3 MSTORE PUSH1 0x20 DUP3 ADD SWAP1 POP PUSH1 0x20 DUP5 MUL DUP4 ADD DUP6 DUP2 GT ISZERO PUSH2 0x20CA JUMPI PUSH2 0x20C9 PUSH2 0x1C9D JUMP JUMPDEST JUMPDEST DUP4 JUMPDEST DUP2 DUP2 LT ISZERO PUSH2 0x2111 JUMPI DUP1 CALLDATALOAD PUSH8 0xFFFFFFFFFFFFFFFF DUP2 GT ISZERO PUSH2 0x20EF JUMPI PUSH2 0x20EE PUSH2 0x1AA2 JUMP JUMPDEST JUMPDEST DUP1 DUP7 ADD PUSH2 0x20FC DUP10 DUP3 PUSH2 0x200C JUMP JUMPDEST DUP6 MSTORE PUSH1 0x20 DUP6 ADD SWAP5 POP POP POP PUSH1 0x20 DUP2 ADD SWAP1 POP PUSH2 0x20CC JUMP JUMPDEST POP POP POP SWAP4 SWAP3 POP POP POP JUMP JUMPDEST PUSH1 0x0 DUP3 PUSH1 0x1F DUP4 ADD SLT PUSH2 0x2130 JUMPI PUSH2 0x212F PUSH2 0x1AA2 JUMP JUMPDEST JUMPDEST DUP2 CALLDATALOAD PUSH2 0x2140 DUP5 DUP3 PUSH1 0x20 DUP7 ADD PUSH2 0x2094 JUMP JUMPDEST SWAP2 POP POP SWAP3 SWAP2 POP POP JUMP JUMPDEST PUSH1 0x0 PUSH1 0x40 DUP3 DUP5 SUB SLT ISZERO PUSH2 0x215F JUMPI PUSH2 0x215E PUSH2 0x19AE JUMP JUMPDEST JUMPDEST PUSH2 0x2169 PUSH1 0x40 PUSH2 0x1A24 JUMP JUMPDEST SWAP1 POP PUSH1 0x0 DUP3 ADD CALLDATALOAD PUSH8 0xFFFFFFFFFFFFFFFF DUP2 GT ISZERO PUSH2 0x2189 JUMPI PUSH2 0x2188 PUSH2 0x1A3F JUMP JUMPDEST JUMPDEST PUSH2 0x2195 DUP5 DUP3 DUP6 ADD PUSH2 0x1F60 JUMP JUMPDEST PUSH1 0x0 DUP4 ADD MSTORE POP PUSH1 0x20 DUP3 ADD CALLDATALOAD PUSH8 0xFFFFFFFFFFFFFFFF DUP2 GT ISZERO PUSH2 0x21B9 JUMPI PUSH2 0x21B8 PUSH2 0x1A3F JUMP JUMPDEST JUMPDEST PUSH2 0x21C5 DUP5 DUP3 DUP6 ADD PUSH2 0x211B JUMP JUMPDEST PUSH1 0x20 DUP4 ADD MSTORE POP SWAP3 SWAP2 POP POP JUMP JUMPDEST PUSH1 0x0 PUSH2 0x21E4 PUSH2 0x21DF DUP5 PUSH2 0x1EFE JUMP JUMPDEST PUSH2 0x1A24 JUMP JUMPDEST SWAP1 POP DUP1 DUP4 DUP3 MSTORE PUSH1 0x20 DUP3 ADD SWAP1 POP PUSH1 0x20 DUP5 MUL DUP4 ADD DUP6 DUP2 GT ISZERO PUSH2 0x2207 JUMPI PUSH2 0x2206 PUSH2 0x1C9D JUMP JUMPDEST JUMPDEST DUP4 JUMPDEST DUP2 DUP2 LT ISZERO PUSH2 0x224E JUMPI DUP1 CALLDATALOAD PUSH8 0xFFFFFFFFFFFFFFFF DUP2 GT ISZERO PUSH2 0x222C JUMPI PUSH2 0x222B PUSH2 0x1AA2 JUMP JUMPDEST JUMPDEST DUP1 DUP7 ADD PUSH2 0x2239 DUP10 DUP3 PUSH2 0x2149 JUMP JUMPDEST DUP6 MSTORE PUSH1 0x20 DUP6 ADD SWAP5 POP POP POP PUSH1 0x20 DUP2 ADD SWAP1 POP PUSH2 0x2209 JUMP JUMPDEST POP POP POP SWAP4 SWAP3 POP POP POP JUMP JUMPDEST PUSH1 0x0 DUP3 PUSH1 0x1F DUP4 ADD SLT PUSH2 0x226D JUMPI PUSH2 0x226C PUSH2 0x1AA2 JUMP JUMPDEST JUMPDEST DUP2 CALLDATALOAD PUSH2 0x227D DUP5 DUP3 PUSH1 0x20 DUP7 ADD PUSH2 0x21D1 JUMP JUMPDEST SWAP2 POP POP SWAP3 SWAP2 POP POP JUMP JUMPDEST PUSH1 0x0 PUSH1 0x20 DUP3 DUP5 SUB SLT ISZERO PUSH2 0x229C JUMPI PUSH2 0x229B PUSH2 0x19A4 JUMP JUMPDEST JUMPDEST PUSH1 0x0 DUP3 ADD CALLDATALOAD PUSH8 0xFFFFFFFFFFFFFFFF DUP2 GT ISZERO PUSH2 0x22BA JUMPI PUSH2 0x22B9 PUSH2 0x19A9 JUMP JUMPDEST JUMPDEST PUSH2 0x22C6 DUP5 DUP3 DUP6 ADD PUSH2 0x2258 JUMP JUMPDEST SWAP2 POP POP SWAP3 SWAP2 POP POP JUMP JUMPDEST PUSH1 0x0 PUSH1 0x20 DUP3 DUP5 SUB SLT ISZERO PUSH2 0x22E5 JUMPI PUSH2 0x22E4 PUSH2 0x19A4 JUMP JUMPDEST JUMPDEST PUSH1 0x0 PUSH2 0x22F3 DUP5 DUP3 DUP6 ADD PUSH2 0x1A8D JUMP JUMPDEST SWAP2 POP POP SWAP3 SWAP2 POP POP JUMP JUMPDEST PUSH1 0x0 DUP1 DUP4 PUSH1 0x1F DUP5 ADD SLT PUSH2 0x2312 JUMPI PUSH2 0x2311 PUSH2 0x1AA2 JUMP JUMPDEST JUMPDEST DUP3 CALLDATALOAD SWAP1 POP PUSH8 0xFFFFFFFFFFFFFFFF DUP2 GT ISZERO PUSH2 0x232F JUMPI PUSH2 0x232E PUSH2 0x1E20 JUMP JUMPDEST JUMPDEST PUSH1 0x20 DUP4 ADD SWAP2 POP DUP4 PUSH1 0x20 DUP3 MUL DUP4 ADD GT ISZERO PUSH2 0x234B JUMPI PUSH2 0x234A PUSH2 0x1C9D JUMP JUMPDEST JUMPDEST SWAP3 POP SWAP3 SWAP1 POP JUMP JUMPDEST PUSH1 0x0 DUP1 PUSH1 0x20 DUP4 DUP6 SUB SLT ISZERO PUSH2 0x2369 JUMPI PUSH2 0x2368 PUSH2 0x19A4 JUMP JUMPDEST JUMPDEST PUSH1 0x0 DUP4 ADD CALLDATALOAD PUSH8 0xFFFFFFFFFFFFFFFF DUP2 GT ISZERO PUSH2 0x2387 JUMPI PUSH2 0x2386 PUSH2 0x19A9 JUMP JUMPDEST JUMPDEST PUSH2 0x2393 DUP6 DUP3 DUP7 ADD PUSH2 0x22FC JUMP JUMPDEST SWAP3 POP SWAP3 POP POP SWAP3 POP SWAP3 SWAP1 POP JUMP JUMPDEST PUSH1 0x0 PUSH1 0x20 DUP3 DUP5 SUB SLT ISZERO PUSH2 0x23B5 JUMPI PUSH2 0x23B4 PUSH2 0x19A4 JUMP JUMPDEST JUMPDEST PUSH1 0x0 DUP3 ADD CALLDATALOAD PUSH8 0xFFFFFFFFFFFFFFFF DUP2 GT ISZERO PUSH2 0x23D3 JUMPI PUSH2 0x23D2 PUSH2 0x19A9 JUMP JUMPDEST JUMPDEST PUSH2 0x23DF DUP5 DUP3 DUP6 ADD PUSH2 0x2149 JUMP JUMPDEST SWAP2 POP POP SWAP3 SWAP2 POP POP JUMP JUMPDEST PUSH1 0x0 PUSH1 0x40 DUP3 DUP5 SUB SLT ISZERO PUSH2 0x23FE JUMPI PUSH2 0x23FD PUSH2 0x19AE JUMP JUMPDEST JUMPDEST PUSH2 0x2408 PUSH1 0x40 PUSH2 0x1A24 JUMP JUMPDEST SWAP1 POP PUSH1 0x0 PUSH2 0x2418 DUP5 DUP3 DUP6 ADD PUSH2 0x1F4B JUMP JUMPDEST PUSH1 0x0 DUP4 ADD MSTORE POP PUSH1 0x20 PUSH2 0x242C DUP5 DUP3 DUP6 ADD PUSH2 0x1F4B JUMP JUMPDEST PUSH1 0x20 DUP4 ADD MSTORE POP SWAP3 SWAP2 POP POP JUMP JUMPDEST PUSH1 0x0 PUSH1 0x60 DUP3 DUP5 SUB SLT ISZERO PUSH2 0x244E JUMPI PUSH2 0x244D PUSH2 0x19AE JUMP JUMPDEST JUMPDEST PUSH2 0x2458 PUSH1 0x40 PUSH2 0x1A24 JUMP JUMPDEST SWAP1 POP PUSH1 0x0 DUP3 ADD CALLDATALOAD PUSH8 0xFFFFFFFFFFFFFFFF DUP2 GT ISZERO PUSH2 0x2478 JUMPI PUSH2 0x2477 PUSH2 0x1A3F JUMP JUMPDEST JUMPDEST PUSH2 0x2484 DUP5 DUP3 DUP6 ADD PUSH2 0x2258 JUMP JUMPDEST PUSH1 0x0 DUP4 ADD MSTORE POP PUSH1 0x20 PUSH2 0x2498 DUP5 DUP3 DUP6 ADD PUSH2 0x23E8 JUMP JUMPDEST PUSH1 0x20 DUP4 ADD MSTORE POP SWAP3 SWAP2 POP POP JUMP JUMPDEST PUSH1 0x0 PUSH1 0x20 DUP3 DUP5 SUB SLT ISZERO PUSH2 0x24BA JUMPI PUSH2 0x24B9 PUSH2 0x19A4 JUMP JUMPDEST JUMPDEST PUSH1 0x0 DUP3 ADD CALLDATALOAD PUSH8 0xFFFFFFFFFFFFFFFF DUP2 GT ISZERO PUSH2 0x24D8 JUMPI PUSH2 0x24D7 PUSH2 0x19A9 JUMP JUMPDEST JUMPDEST PUSH2 0x24E4 DUP5 DUP3 DUP6 ADD PUSH2 0x2438 JUMP JUMPDEST SWAP2 POP POP SWAP3 SWAP2 POP POP JUMP JUMPDEST PUSH1 0x0 PUSH1 0x20 DUP3 DUP5 SUB SLT ISZERO PUSH2 0x2503 JUMPI PUSH2 0x2502 PUSH2 0x19A4 JUMP JUMPDEST JUMPDEST PUSH1 0x0 DUP3 ADD CALLDATALOAD PUSH8 0xFFFFFFFFFFFFFFFF DUP2 GT ISZERO PUSH2 0x2521 JUMPI PUSH2 0x2520 PUSH2 0x19A9 JUMP JUMPDEST JUMPDEST PUSH2 0x252D DUP5 DUP3 DUP6 ADD PUSH2 0x200C JUMP JUMPDEST SWAP2 POP POP SWAP3 SWAP2 POP POP JUMP JUMPDEST PUSH1 0x0 PUSH1 0x40 DUP3 DUP5 SUB SLT ISZERO PUSH2 0x254C JUMPI PUSH2 0x254B PUSH2 0x19A4 JUMP JUMPDEST JUMPDEST PUSH1 0x0 PUSH2 0x255A DUP5 DUP3 DUP6 ADD PUSH2 0x23E8 JUMP JUMPDEST SWAP2 POP POP SWAP3 SWAP2 POP POP JUMP JUMPDEST PUSH1 0x0 PUSH1 0x20 DUP3 DUP5 SUB SLT ISZERO PUSH2 0x2579 JUMPI PUSH2 0x2578 PUSH2 0x19A4 JUMP JUMPDEST JUMPDEST PUSH1 0x0 DUP3 ADD CALLDATALOAD PUSH8 0xFFFFFFFFFFFFFFFF DUP2 GT ISZERO PUSH2 0x2597 JUMPI PUSH2 0x2596 PUSH2 0x19A9 JUMP JUMPDEST JUMPDEST PUSH2 0x25A3 DUP5 DUP3 DUP6 ADD PUSH2 0x211B JUMP JUMPDEST SWAP2 POP POP SWAP3 SWAP2 POP POP JUMP JUMPDEST PUSH1 0x0 PUSH1 0x20 DUP3 DUP5 SUB SLT ISZERO PUSH2 0x25C2 JUMPI PUSH2 0x25C1 PUSH2 0x19A4 JUMP JUMPDEST JUMPDEST PUSH1 0x0 DUP3 ADD CALLDATALOAD PUSH8 0xFFFFFFFFFFFFFFFF DUP2 GT ISZERO PUSH2 0x25E0 JUMPI PUSH2 0x25DF PUSH2 0x19A9 JUMP JUMPDEST JUMPDEST PUSH2 0x25EC DUP5 DUP3 DUP6 ADD PUSH2 0x1D29 JUMP JUMPDEST SWAP2 POP POP SWAP3 SWAP2 POP POP JUMP JUMPDEST PUSH1 0x0 DUP1 PUSH1 0x40 DUP4 DUP6 SUB SLT ISZERO PUSH2 0x260C JUMPI PUSH2 0x260B PUSH2 0x19A4 JUMP JUMPDEST JUMPDEST PUSH1 0x0 PUSH2 0x261A DUP6 DUP3 DUP7 ADD PUSH2 0x1A8D JUMP JUMPDEST SWAP3 POP POP PUSH1 0x20 PUSH2 0x262B DUP6 DUP3 DUP7 ADD PUSH2 0x1F4B JUMP JUMPDEST SWAP2 POP POP SWAP3 POP SWAP3 SWAP1 POP JUMP JUMPDEST PUSH2 0x263E DUP2 PUSH2 0x1F2A JUMP JUMPDEST DUP3 MSTORE POP POP JUMP JUMPDEST PUSH1 0x0 PUSH1 0x20 DUP3 ADD SWAP1 POP PUSH2 0x2659 PUSH1 0x0 DUP4 ADD DUP5 PUSH2 0x2635 JUMP JUMPDEST SWAP3 SWAP2 POP POP JUMP JUMPDEST PUSH2 0x2668 DUP2 PUSH2 0x1A64 JUMP JUMPDEST DUP3 MSTORE POP POP JUMP JUMPDEST PUSH1 0x0 PUSH1 0x20 DUP3 ADD SWAP1 POP PUSH2 0x2683 PUSH1 0x0 DUP4 ADD DUP5 PUSH2 0x265F JUMP JUMPDEST SWAP3 SWAP2 POP POP JUMP JUMPDEST PUSH1 0x0 PUSH1 0x20 DUP3 DUP5 SUB SLT ISZERO PUSH2 0x269F JUMPI PUSH2 0x269E PUSH2 0x19A4 JUMP JUMPDEST JUMPDEST PUSH1 0x0 DUP3 ADD CALLDATALOAD PUSH8 0xFFFFFFFFFFFFFFFF DUP2 GT ISZERO PUSH2 0x26BD JUMPI PUSH2 0x26BC PUSH2 0x19A9 JUMP JUMPDEST JUMPDEST PUSH2 0x26C9 DUP5 DUP3 DUP6 ADD PUSH2 0x1F60 JUMP JUMPDEST SWAP2 POP POP SWAP3 SWAP2 POP POP JUMP JUMPDEST PUSH1 0x0 PUSH1 0x40 DUP3 DUP5 SUB SLT ISZERO PUSH2 0x26E8 JUMPI PUSH2 0x26E7 PUSH2 0x19AE JUMP JUMPDEST JUMPDEST PUSH2 0x26F2 PUSH1 0x40 PUSH2 0x1A24 JUMP JUMPDEST SWAP1 POP PUSH1 0x0 DUP3 ADD CALLDATALOAD PUSH8 0xFFFFFFFFFFFFFFFF DUP2 GT ISZERO PUSH2 0x2712 JUMPI PUSH2 0x2711 PUSH2 0x1A3F JUMP JUMPDEST JUMPDEST PUSH2 0x271E DUP5 DUP3 DUP6 ADD PUSH2 0x2438 JUMP JUMPDEST PUSH1 0x0 DUP4 ADD MSTORE POP PUSH1 0x20 DUP3 ADD CALLDATALOAD PUSH8 0xFFFFFFFFFFFFFFFF DUP2 GT ISZERO PUSH2 0x2742 JUMPI PUSH2 0x2741 PUSH2 0x1A3F JUMP JUMPDEST JUMPDEST PUSH2 0x274E DUP5 DUP3 DUP6 ADD PUSH2 0x1B2E JUMP JUMPDEST PUSH1 0x20 DUP4 ADD MSTORE POP SWAP3 SWAP2 POP POP JUMP JUMPDEST PUSH1 0x0 PUSH1 0x20 DUP3 DUP5 SUB SLT ISZERO PUSH2 0x2770 JUMPI PUSH2 0x276F PUSH2 0x19A4 JUMP JUMPDEST JUMPDEST PUSH1 0x0 DUP3 ADD CALLDATALOAD PUSH8 0xFFFFFFFFFFFFFFFF DUP2 GT ISZERO PUSH2 0x278E JUMPI PUSH2 0x278D PUSH2 0x19A9 JUMP JUMPDEST JUMPDEST PUSH2 0x279A DUP5 DUP3 DUP6 ADD PUSH2 0x26D2 JUMP JUMPDEST SWAP2 POP POP SWAP3 SWAP2 POP POP JUMP JUMPDEST PUSH1 0x0 PUSH8 0xFFFFFFFFFFFFFFFF DUP3 GT ISZERO PUSH2 0x27BE JUMPI PUSH2 0x27BD PUSH2 0x19C4 JUMP JUMPDEST JUMPDEST PUSH2 0x27C7 DUP3 PUSH2 0x19B3 JUMP JUMPDEST SWAP1 POP PUSH1 0x20 DUP2 ADD SWAP1 POP SWAP2 SWAP1 POP JUMP JUMPDEST PUSH1 0x0 PUSH2 0x27E7 PUSH2 0x27E2 DUP5 PUSH2 0x27A3 JUMP JUMPDEST PUSH2 0x1A24 JUMP JUMPDEST SWAP1 POP DUP3 DUP2 MSTORE PUSH1 0x20 DUP2 ADD DUP5 DUP5 DUP5 ADD GT ISZERO PUSH2 0x2803 JUMPI PUSH2 0x2802 PUSH2 0x1AA7 JUMP JUMPDEST JUMPDEST PUSH2 0x280E DUP5 DUP3 DUP6 PUSH2 0x1ADD JUMP JUMPDEST POP SWAP4 SWAP3 POP POP POP JUMP JUMPDEST PUSH1 0x0 DUP3 PUSH1 0x1F DUP4 ADD SLT PUSH2 0x282B JUMPI PUSH2 0x282A PUSH2 0x1AA2 JUMP JUMPDEST JUMPDEST DUP2 CALLDATALOAD PUSH2 0x283B DUP5 DUP3 PUSH1 0x20 DUP7 ADD PUSH2 0x27D4 JUMP JUMPDEST SWAP2 POP POP SWAP3 SWAP2 POP POP JUMP JUMPDEST PUSH1 0x0 DUP1 PUSH1 0x0 DUP1 PUSH1 0x80 DUP6 DUP8 SUB SLT ISZERO PUSH2 0x285E JUMPI PUSH2 0x285D PUSH2 0x19A4 JUMP JUMPDEST JUMPDEST PUSH1 0x0 DUP6 ADD CALLDATALOAD PUSH8 0xFFFFFFFFFFFFFFFF DUP2 GT ISZERO PUSH2 0x287C JUMPI PUSH2 0x287B PUSH2 0x19A9 JUMP JUMPDEST JUMPDEST PUSH2 0x2888 DUP8 DUP3 DUP9 ADD PUSH2 0x2816 JUMP JUMPDEST SWAP5 POP POP PUSH1 0x20 DUP6 ADD CALLDATALOAD PUSH8 0xFFFFFFFFFFFFFFFF DUP2 GT ISZERO PUSH2 0x28A9 JUMPI PUSH2 0x28A8 PUSH2 0x19A9 JUMP JUMPDEST JUMPDEST PUSH2 0x28B5 DUP8 DUP3 DUP9 ADD PUSH2 0x2816 JUMP JUMPDEST SWAP4 POP POP PUSH1 0x40 PUSH2 0x28C6 DUP8 DUP3 DUP9 ADD PUSH2 0x1F4B JUMP JUMPDEST SWAP3 POP POP PUSH1 0x60 PUSH2 0x28D7 DUP8 DUP3 DUP9 ADD PUSH2 0x1A8D JUMP JUMPDEST SWAP2 POP POP SWAP3 SWAP6 SWAP2 SWAP5 POP SWAP3 POP JUMP JUMPDEST PUSH1 0x0 PUSH1 0x60 DUP3 ADD SWAP1 POP PUSH2 0x28F8 PUSH1 0x0 DUP4 ADD DUP7 PUSH2 0x1C1B JUMP JUMPDEST PUSH2 0x2905 PUSH1 0x20 DUP4 ADD DUP6 PUSH2 0x265F JUMP JUMPDEST PUSH2 0x2912 PUSH1 0x40 DUP4 ADD DUP5 PUSH2 0x1C1B JUMP JUMPDEST SWAP5 SWAP4 POP POP POP POP JUMP JUMPDEST PUSH1 0x0 PUSH1 0x80 DUP3 ADD SWAP1 POP PUSH2 0x292F PUSH1 0x0 DUP4 ADD DUP8 PUSH2 0x1C1B JUMP JUMPDEST PUSH2 0x293C PUSH1 0x20 DUP4 ADD DUP7 PUSH2 0x265F JUMP JUMPDEST PUSH2 0x2949 PUSH1 0x40 DUP4 ADD DUP6 PUSH2 0x1C1B JUMP JUMPDEST PUSH2 0x2956 PUSH1 0x60 DUP4 ADD DUP5 PUSH2 0x1C1B JUMP JUMPDEST SWAP6 SWAP5 POP POP POP POP POP JUMP JUMPDEST PUSH32 0x4E487B7100000000000000000000000000000000000000000000000000000000 PUSH1 0x0 MSTORE PUSH1 0x32 PUSH1 0x4 MSTORE PUSH1 0x24 PUSH1 0x0 REVERT JUMPDEST PUSH1 0x0 DUP1 REVERT JUMPDEST PUSH1 0x0 DUP1 REVERT JUMPDEST PUSH1 0x0 DUP1 REVERT JUMPDEST PUSH1 0x0 DUP3 CALLDATALOAD PUSH1 0x1 PUSH1 0x40 SUB DUP4 CALLDATASIZE SUB SUB DUP2 SLT PUSH2 0x29B9 JUMPI PUSH2 0x29B8 PUSH2 0x298E JUMP JUMPDEST JUMPDEST DUP1 DUP4 ADD SWAP2 POP POP SWAP3 SWAP2 POP POP JUMP JUMPDEST PUSH1 0x0 PUSH2 0x29D1 CALLDATASIZE DUP4 PUSH2 0x26D2 JUMP JUMPDEST SWAP1 POP SWAP2 SWAP1 POP JUMP JUMPDEST PUSH1 0x0 DUP3 CALLDATALOAD PUSH1 0x1 PUSH1 0x60 SUB DUP4 CALLDATASIZE SUB SUB DUP2 SLT PUSH2 0x29F4 JUMPI PUSH2 0x29F3 PUSH2 0x298E JUMP JUMPDEST JUMPDEST DUP1 DUP4 ADD SWAP2 POP POP SWAP3 SWAP2 POP POP JUMP JUMPDEST PUSH1 0x0 DUP1 DUP4 CALLDATALOAD PUSH1 0x1 PUSH1 0x20 SUB DUP5 CALLDATASIZE SUB SUB DUP2 SLT PUSH2 0x2A1D JUMPI PUSH2 0x2A1C PUSH2 0x298E JUMP JUMPDEST JUMPDEST DUP1 DUP5 ADD SWAP3 POP DUP3 CALLDATALOAD SWAP2 POP PUSH8 0xFFFFFFFFFFFFFFFF DUP3 GT ISZERO PUSH2 0x2A3F JUMPI PUSH2 0x2A3E PUSH2 0x2993 JUMP JUMPDEST JUMPDEST PUSH1 0x20 DUP4 ADD SWAP3 POP PUSH1 0x20 DUP3 MUL CALLDATASIZE SUB DUP4 SGT ISZERO PUSH2 0x2A5B JUMPI PUSH2 0x2A5A PUSH2 0x2998 JUMP JUMPDEST JUMPDEST POP SWAP3 POP SWAP3 SWAP1 POP JUMP JUMPDEST PUSH32 0x4E487B7100000000000000000000000000000000000000000000000000000000 PUSH1 0x0 MSTORE PUSH1 0x11 PUSH1 0x4 MSTORE PUSH1 0x24 PUSH1 0x0 REVERT JUMPDEST PUSH1 0x0 PUSH2 0x2A9D DUP3 PUSH2 0x1F2A JUMP JUMPDEST SWAP2 POP PUSH32 0xFFFFFFFFFFFFFFFFFFFFFFFFFFFFFFFFFFFFFFFFFFFFFFFFFFFFFFFFFFFFFFFF DUP3 SUB PUSH2 0x2ACF JUMPI PUSH2 0x2ACE PUSH2 0x2A63 JUMP JUMPDEST JUMPDEST PUSH1 0x1 DUP3 ADD SWAP1 POP SWAP2 SWAP1 POP JUMP JUMPDEST PUSH1 0x0 DUP2 MLOAD SWAP1 POP SWAP2 SWAP1 POP JUMP JUMPDEST PUSH1 0x0 DUP2 SWAP1 POP SWAP3 SWAP2 POP POP JUMP JUMPDEST PUSH1 0x0 JUMPDEST DUP4 DUP2 LT ISZERO PUSH2 0x2B0E JUMPI DUP1 DUP3 ADD MLOAD DUP2 DUP5 ADD MSTORE PUSH1 0x20 DUP2 ADD SWAP1 POP PUSH2 0x2AF3 JUMP JUMPDEST DUP4 DUP2 GT ISZERO PUSH2 0x2B1D JUMPI PUSH1 0x0 DUP5 DUP5 ADD MSTORE JUMPDEST POP POP POP POP JUMP JUMPDEST PUSH1 0x0 PUSH2 0x2B2E DUP3 PUSH2 0x2ADA JUMP JUMPDEST PUSH2 0x2B38 DUP2 DUP6 PUSH2 0x2AE5 JUMP JUMPDEST SWAP4 POP PUSH2 0x2B48 DUP2 DUP6 PUSH1 0x20 DUP7 ADD PUSH2 0x2AF0 JUMP JUMPDEST DUP1 DUP5 ADD SWAP2 POP POP SWAP3 SWAP2 POP POP JUMP JUMPDEST PUSH1 0x0 DUP2 SWAP1 POP SWAP2 SWAP1 POP JUMP JUMPDEST PUSH2 0x2B6F PUSH2 0x2B6A DUP3 PUSH2 0x1C11 JUMP JUMPDEST PUSH2 0x2B54 JUMP JUMPDEST DUP3 MSTORE POP POP JUMP JUMPDEST PUSH1 0x0 PUSH2 0x2B81 DUP3 DUP6 PUSH2 0x2B23 JUMP JUMPDEST SWAP2 POP PUSH2 0x2B8D DUP3 DUP5 PUSH2 0x2B5E JUMP JUMPDEST PUSH1 0x20 DUP3 ADD SWAP2 POP DUP2 SWAP1 POP SWAP4 SWAP3 POP POP POP JUMP JUMPDEST PUSH1 0x0 PUSH1 0x60 DUP3 ADD SWAP1 POP PUSH2 0x2BB2 PUSH1 0x0 DUP4 ADD DUP7 PUSH2 0x1C1B JUMP JUMPDEST PUSH2 0x2BBF PUSH1 0x20 DUP4 ADD DUP6 PUSH2 0x1C1B JUMP JUMPDEST PUSH2 0x2BCC PUSH1 0x40 DUP4 ADD DUP5 PUSH2 0x1C1B JUMP JUMPDEST SWAP5 SWAP4 POP POP POP POP JUMP JUMPDEST PUSH1 0x0 DUP2 SWAP1 POP SWAP3 SWAP2 POP POP JUMP JUMPDEST PUSH32 0x1901000000000000000000000000000000000000000000000000000000000000 PUSH1 0x0 DUP3 ADD MSTORE POP JUMP JUMPDEST PUSH1 0x0 PUSH2 0x2C15 PUSH1 0x2 DUP4 PUSH2 0x2BD4 JUMP JUMPDEST SWAP2 POP PUSH2 0x2C20 DUP3 PUSH2 0x2BDF JUMP JUMPDEST PUSH1 0x2 DUP3 ADD SWAP1 POP SWAP2 SWAP1 POP JUMP JUMPDEST PUSH1 0x0 PUSH2 0x2C36 DUP3 PUSH2 0x2C08 JUMP JUMPDEST SWAP2 POP PUSH2 0x2C42 DUP3 DUP6 PUSH2 0x2B5E JUMP JUMPDEST PUSH1 0x20 DUP3 ADD SWAP2 POP PUSH2 0x2C52 DUP3 DUP5 PUSH2 0x2B5E JUMP JUMPDEST PUSH1 0x20 DUP3 ADD SWAP2 POP DUP2 SWAP1 POP SWAP4 SWAP3 POP POP POP JUMP JUMPDEST PUSH1 0x0 PUSH1 0x60 DUP3 ADD SWAP1 POP PUSH2 0x2C77 PUSH1 0x0 DUP4 ADD DUP7 PUSH2 0x1C1B JUMP JUMPDEST PUSH2 0x2C84 PUSH1 0x20 DUP4 ADD DUP6 PUSH2 0x2635 JUMP JUMPDEST PUSH2 0x2C91 PUSH1 0x40 DUP4 ADD DUP5 PUSH2 0x2635 JUMP JUMPDEST SWAP5 SWAP4 POP POP POP POP JUMP JUMPDEST PUSH1 0x0 PUSH1 0x80 DUP3 ADD SWAP1 POP PUSH2 0x2CAE PUSH1 0x0 DUP4 ADD DUP8 PUSH2 0x1C1B JUMP JUMPDEST PUSH2 0x2CBB PUSH1 0x20 DUP4 ADD DUP7 PUSH2 0x265F JUMP JUMPDEST PUSH2 0x2CC8 PUSH1 0x40 DUP4 ADD DUP6 PUSH2 0x2635 JUMP JUMPDEST PUSH2 0x2CD5 PUSH1 0x60 DUP4 ADD DUP5 PUSH2 0x1C1B JUMP JUMPDEST SWAP6 SWAP5 POP POP POP POP POP JUMP JUMPDEST PUSH1 0x0 PUSH1 0xA0 DUP3 ADD SWAP1 POP PUSH2 0x2CF3 PUSH1 0x0 DUP4 ADD DUP9 PUSH2 0x1C1B JUMP JUMPDEST PUSH2 0x2D00 PUSH1 0x20 DUP4 ADD DUP8 PUSH2 0x1C1B JUMP JUMPDEST PUSH2 0x2D0D PUSH1 0x40 DUP4 ADD DUP7 PUSH2 0x1C1B JUMP JUMPDEST PUSH2 0x2D1A PUSH1 0x60 DUP4 ADD DUP6 PUSH2 0x2635 JUMP JUMPDEST PUSH2 0x2D27 PUSH1 0x80 DUP4 ADD DUP5 PUSH2 0x265F JUMP JUMPDEST SWAP7 SWAP6 POP POP POP POP POP POP JUMP JUMPDEST PUSH1 0x0 DUP3 DUP3 MSTORE PUSH1 0x20 DUP3 ADD SWAP1 POP SWAP3 SWAP2 POP POP JUMP JUMPDEST PUSH32 0x4F776E61626C653A206E6577206F776E657220697320746865207A65726F2061 PUSH1 0x0 DUP3 ADD MSTORE PUSH32 0x6464726573730000000000000000000000000000000000000000000000000000 PUSH1 0x20 DUP3 ADD MSTORE POP JUMP JUMPDEST PUSH1 0x0 PUSH2 0x2D9E PUSH1 0x26 DUP4 PUSH2 0x2D31 JUMP JUMPDEST SWAP2 POP PUSH2 0x2DA9 DUP3 PUSH2 0x2D42 JUMP JUMPDEST PUSH1 0x40 DUP3 ADD SWAP1 POP SWAP2 SWAP1 POP JUMP JUMPDEST PUSH1 0x0 PUSH1 0x20 DUP3 ADD SWAP1 POP DUP2 DUP2 SUB PUSH1 0x0 DUP4 ADD MSTORE PUSH2 0x2DCD DUP2 PUSH2 0x2D91 JUMP JUMPDEST SWAP1 POP SWAP2 SWAP1 POP JUMP JUMPDEST PUSH1 0x0 PUSH2 0x2DDF DUP3 PUSH2 0x1F2A JUMP JUMPDEST SWAP2 POP PUSH2 0x2DEA DUP4 PUSH2 0x1F2A JUMP JUMPDEST SWAP3 POP DUP3 PUSH32 0xFFFFFFFFFFFFFFFFFFFFFFFFFFFFFFFFFFFFFFFFFFFFFFFFFFFFFFFFFFFFFFFF SUB DUP3 GT ISZERO PUSH2 0x2E1F JUMPI PUSH2 0x2E1E PUSH2 0x2A63 JUMP JUMPDEST JUMPDEST DUP3 DUP3 ADD SWAP1 POP SWAP3 SWAP2 POP POP JUMP JUMPDEST PUSH32 0x44656C6567617461626C65436F72653A6E6F6E6365322D6F75742D6F662D6F72 PUSH1 0x0 DUP3 ADD MSTORE PUSH32 0x6465720000000000000000000000000000000000000000000000000000000000 PUSH1 0x20 DUP3 ADD MSTORE POP JUMP JUMPDEST PUSH1 0x0 PUSH2 0x2E86 PUSH1 0x23 DUP4 PUSH2 0x2D31 JUMP JUMPDEST SWAP2 POP PUSH2 0x2E91 DUP3 PUSH2 0x2E2A JUMP JUMPDEST PUSH1 0x40 DUP3 ADD SWAP1 POP SWAP2 SWAP1 POP JUMP JUMPDEST PUSH1 0x0 PUSH1 0x20 DUP3 ADD SWAP1 POP DUP2 DUP2 SUB PUSH1 0x0 DUP4 ADD MSTORE PUSH2 0x2EB5 DUP2 PUSH2 0x2E79 JUMP JUMPDEST SWAP1 POP SWAP2 SWAP1 POP JUMP JUMPDEST PUSH1 0x0 DUP3 CALLDATALOAD PUSH1 0x1 PUSH1 0x40 SUB DUP4 CALLDATASIZE SUB SUB DUP2 SLT PUSH2 0x2ED8 JUMPI PUSH2 0x2ED7 PUSH2 0x298E JUMP JUMPDEST JUMPDEST DUP1 DUP4 ADD SWAP2 POP POP SWAP3 SWAP2 POP POP JUMP JUMPDEST PUSH1 0x0 PUSH2 0x2EF0 CALLDATASIZE DUP4 PUSH2 0x2149 JUMP JUMPDEST SWAP1 POP SWAP2 SWAP1 POP JUMP JUMPDEST PUSH32 0x44656C6567617461626C65436F72653A696E76616C69642D64656C6567617469 PUSH1 0x0 DUP3 ADD MSTORE PUSH32 0x6F6E2D7369676E65720000000000000000000000000000000000000000000000 PUSH1 0x20 DUP3 ADD MSTORE POP JUMP JUMPDEST PUSH1 0x0 PUSH2 0x2F53 PUSH1 0x29 DUP4 PUSH2 0x2D31 JUMP JUMPDEST SWAP2 POP PUSH2 0x2F5E DUP3 PUSH2 0x2EF7 JUMP JUMPDEST PUSH1 0x40 DUP3 ADD SWAP1 POP SWAP2 SWAP1 POP JUMP JUMPDEST PUSH1 0x0 PUSH1 0x20 DUP3 ADD SWAP1 POP DUP2 DUP2 SUB PUSH1 0x0 DUP4 ADD MSTORE PUSH2 0x2F82 DUP2 PUSH2 0x2F46 JUMP JUMPDEST SWAP1 POP SWAP2 SWAP1 POP JUMP JUMPDEST PUSH32 0x44656C6567617461626C65436F72653A696E76616C69642D617574686F726974 PUSH1 0x0 DUP3 ADD MSTORE PUSH32 0x792D64656C65676174696F6E2D6C696E6B000000000000000000000000000000 PUSH1 0x20 DUP3 ADD MSTORE POP JUMP JUMPDEST PUSH1 0x0 PUSH2 0x2FE5 PUSH1 0x31 DUP4 PUSH2 0x2D31 JUMP JUMPDEST SWAP2 POP PUSH2 0x2FF0 DUP3 PUSH2 0x2F89 JUMP JUMPDEST PUSH1 0x40 DUP3 ADD SWAP1 POP SWAP2 SWAP1 POP JUMP JUMPDEST PUSH1 0x0 PUSH1 0x20 DUP3 ADD SWAP1 POP DUP2 DUP2 SUB PUSH1 0x0 DUP4 ADD MSTORE PUSH2 0x3014 DUP2 PUSH2 0x2FD8 JUMP JUMPDEST SWAP1 POP SWAP2 SWAP1 POP JUMP JUMPDEST PUSH1 0x0 DUP3 DUP3 MSTORE PUSH1 0x20 DUP3 ADD SWAP1 POP SWAP3 SWAP2 POP POP JUMP JUMPDEST PUSH1 0x0 PUSH2 0x3037 DUP3 PUSH2 0x2ADA JUMP JUMPDEST PUSH2 0x3041 DUP2 DUP6 PUSH2 0x301B JUMP JUMPDEST SWAP4 POP PUSH2 0x3051 DUP2 DUP6 PUSH1 0x20 DUP7 ADD PUSH2 0x2AF0 JUMP JUMPDEST PUSH2 0x305A DUP2 PUSH2 0x19B3 JUMP JUMPDEST DUP5 ADD SWAP2 POP POP SWAP3 SWAP2 POP POP JUMP JUMPDEST PUSH2 0x306E DUP2 PUSH2 0x1A64 JUMP JUMPDEST DUP3 MSTORE POP POP JUMP JUMPDEST PUSH2 0x307D DUP2 PUSH2 0x1F2A JUMP JUMPDEST DUP3 MSTORE POP POP JUMP JUMPDEST PUSH1 0x0 DUP3 DUP3 MSTORE PUSH1 0x20 DUP3 ADD SWAP1 POP SWAP3 SWAP2 POP POP JUMP JUMPDEST PUSH1 0x0 PUSH2 0x309F DUP3 PUSH2 0x2ADA JUMP JUMPDEST PUSH2 0x30A9 DUP2 DUP6 PUSH2 0x3083 JUMP JUMPDEST SWAP4 POP PUSH2 0x30B9 DUP2 DUP6 PUSH1 0x20 DUP7 ADD PUSH2 0x2AF0 JUMP JUMPDEST PUSH2 0x30C2 DUP2 PUSH2 0x19B3 JUMP JUMPDEST DUP5 ADD SWAP2 POP POP SWAP3 SWAP2 POP POP JUMP JUMPDEST PUSH1 0x0 PUSH1 0x60 DUP4 ADD PUSH1 0x0 DUP4 ADD MLOAD PUSH2 0x30E5 PUSH1 0x0 DUP7 ADD DUP3 PUSH2 0x3065 JUMP JUMPDEST POP PUSH1 0x20 DUP4 ADD MLOAD PUSH2 0x30F8 PUSH1 0x20 DUP7 ADD DUP3 PUSH2 0x3074 JUMP JUMPDEST POP PUSH1 0x40 DUP4 ADD MLOAD DUP5 DUP3 SUB PUSH1 0x40 DUP7 ADD MSTORE PUSH2 0x3110 DUP3 DUP3 PUSH2 0x3094 JUMP JUMPDEST SWAP2 POP POP DUP1 SWAP2 POP POP SWAP3 SWAP2 POP POP JUMP JUMPDEST PUSH1 0x0 PUSH1 0x60 DUP3 ADD SWAP1 POP DUP2 DUP2 SUB PUSH1 0x0 DUP4 ADD MSTORE PUSH2 0x3137 DUP2 DUP7 PUSH2 0x302C JUMP JUMPDEST SWAP1 POP DUP2 DUP2 SUB PUSH1 0x20 DUP4 ADD MSTORE PUSH2 0x314B DUP2 DUP6 PUSH2 0x30CD JUMP JUMPDEST SWAP1 POP PUSH2 0x315A PUSH1 0x40 DUP4 ADD DUP5 PUSH2 0x1C1B JUMP JUMPDEST SWAP5 SWAP4 POP POP POP POP JUMP JUMPDEST PUSH2 0x316B DUP2 PUSH2 0x1EC8 JUMP JUMPDEST DUP2 EQ PUSH2 0x3176 JUMPI PUSH1 0x0 DUP1 REVERT JUMPDEST POP JUMP JUMPDEST PUSH1 0x0 DUP2 MLOAD SWAP1 POP PUSH2 0x3188 DUP2 PUSH2 0x3162 JUMP JUMPDEST SWAP3 SWAP2 POP POP JUMP JUMPDEST PUSH1 0x0 PUSH1 0x20 DUP3 DUP5 SUB SLT ISZERO PUSH2 0x31A4 JUMPI PUSH2 0x31A3 PUSH2 0x19A4 JUMP JUMPDEST JUMPDEST PUSH1 0x0 PUSH2 0x31B2 DUP5 DUP3 DUP6 ADD PUSH2 0x3179 JUMP JUMPDEST SWAP2 POP POP SWAP3 SWAP2 POP POP JUMP JUMPDEST PUSH32 0x44656C6567617461626C65436F72653A6361766561742D72656A656374656400 PUSH1 0x0 DUP3 ADD MSTORE POP JUMP JUMPDEST PUSH1 0x0 PUSH2 0x31F1 PUSH1 0x1F DUP4 PUSH2 0x2D31 JUMP JUMPDEST SWAP2 POP PUSH2 0x31FC DUP3 PUSH2 0x31BB JUMP JUMPDEST PUSH1 0x20 DUP3 ADD SWAP1 POP SWAP2 SWAP1 POP JUMP JUMPDEST PUSH1 0x0 PUSH1 0x20 DUP3 ADD SWAP1 POP DUP2 DUP2 SUB PUSH1 0x0 DUP4 ADD MSTORE PUSH2 0x3220 DUP2 PUSH2 0x31E4 JUMP JUMPDEST SWAP1 POP SWAP2 SWAP1 POP JUMP JUMPDEST PUSH1 0x0 PUSH2 0xFFFF DUP3 AND SWAP1 POP SWAP2 SWAP1 POP JUMP JUMPDEST PUSH1 0x0 PUSH2 0x3240 DUP3 PUSH2 0x3227 JUMP JUMPDEST SWAP2 POP PUSH2 0xFFFF DUP3 SUB PUSH2 0x3254 JUMPI PUSH2 0x3253 PUSH2 0x2A63 JUMP JUMPDEST JUMPDEST PUSH1 0x1 DUP3 ADD SWAP1 POP SWAP2 SWAP1 POP JUMP JUMPDEST PUSH32 0x44656C6567617461626C65436F72653A696E76616C69642D64656C6567617465 PUSH1 0x0 DUP3 ADD MSTORE POP JUMP JUMPDEST PUSH1 0x0 PUSH2 0x3295 PUSH1 0x20 DUP4 PUSH2 0x2D31 JUMP JUMPDEST SWAP2 POP PUSH2 0x32A0 DUP3 PUSH2 0x325F JUMP JUMPDEST PUSH1 0x20 DUP3 ADD SWAP1 POP SWAP2 SWAP1 POP JUMP JUMPDEST PUSH1 0x0 PUSH1 0x20 DUP3 ADD SWAP1 POP DUP2 DUP2 SUB PUSH1 0x0 DUP4 ADD MSTORE PUSH2 0x32C4 DUP2 PUSH2 0x3288 JUMP JUMPDEST SWAP1 POP SWAP2 SWAP1 POP JUMP JUMPDEST PUSH32 0x44656C6567617461626C65436F72653A696E76616C69642D696E766F63617469 PUSH1 0x0 DUP3 ADD MSTORE PUSH32 0x6F6E2D7461726765740000000000000000000000000000000000000000000000 PUSH1 0x20 DUP3 ADD MSTORE POP JUMP JUMPDEST PUSH1 0x0 PUSH2 0x3327 PUSH1 0x29 DUP4 PUSH2 0x2D31 JUMP JUMPDEST SWAP2 POP PUSH2 0x3332 DUP3 PUSH2 0x32CB JUMP JUMPDEST PUSH1 0x40 DUP3 ADD SWAP1 POP SWAP2 SWAP1 POP JUMP JUMPDEST PUSH1 0x0 PUSH1 0x20 DUP3 ADD SWAP1 POP DUP2 DUP2 SUB PUSH1 0x0 DUP4 ADD MSTORE PUSH2 0x3356 DUP2 PUSH2 0x331A JUMP JUMPDEST SWAP1 POP SWAP2 SWAP1 POP JUMP JUMPDEST PUSH32 0x44656C6567617461626C65436F72653A3A657865637574696F6E2D6661696C65 PUSH1 0x0 DUP3 ADD MSTORE PUSH32 0x6400000000000000000000000000000000000000000000000000000000000000 PUSH1 0x20 DUP3 ADD MSTORE POP JUMP JUMPDEST PUSH1 0x0 PUSH2 0x33B9 PUSH1 0x21 DUP4 PUSH2 0x2D31 JUMP JUMPDEST SWAP2 POP PUSH2 0x33C4 DUP3 PUSH2 0x335D JUMP JUMPDEST PUSH1 0x40 DUP3 ADD SWAP1 POP SWAP2 SWAP1 POP JUMP JUMPDEST PUSH1 0x0 PUSH1 0x20 DUP3 ADD SWAP1 POP DUP2 DUP2 SUB PUSH1 0x0 DUP4 ADD MSTORE PUSH2 0x33E8 DUP2 PUSH2 0x33AC JUMP JUMPDEST SWAP1 POP SWAP2 SWAP1 POP JUMP JUMPDEST PUSH32 0x4F776E61626C653A2063616C6C6572206973206E6F7420746865206F776E6572 PUSH1 0x0 DUP3 ADD MSTORE POP JUMP JUMPDEST PUSH1 0x0 PUSH2 0x3425 PUSH1 0x20 DUP4 PUSH2 0x2D31 JUMP JUMPDEST SWAP2 POP PUSH2 0x3430 DUP3 PUSH2 0x33EF JUMP JUMPDEST PUSH1 0x20 DUP3 ADD SWAP1 POP SWAP2 SWAP1 POP JUMP JUMPDEST PUSH1 0x0 PUSH1 0x20 DUP3 ADD SWAP1 POP DUP2 DUP2 SUB PUSH1 0x0 DUP4 ADD MSTORE PUSH2 0x3454 DUP2 PUSH2 0x3418 JUMP JUMPDEST SWAP1 POP SWAP2 SWAP1 POP JUMP JUMPDEST PUSH1 0x0 PUSH1 0xFF DUP3 AND SWAP1 POP SWAP2 SWAP1 POP JUMP JUMPDEST PUSH1 0x0 PUSH2 0x3473 DUP3 PUSH2 0x345B JUMP JUMPDEST SWAP2 POP PUSH2 0x347E DUP4 PUSH2 0x345B JUMP JUMPDEST SWAP3 POP DUP3 PUSH1 0xFF SUB DUP3 GT ISZERO PUSH2 0x3494 JUMPI PUSH2 0x3493 PUSH2 0x2A63 JUMP JUMPDEST JUMPDEST DUP3 DUP3 ADD SWAP1 POP SWAP3 SWAP2 POP POP JUMP JUMPDEST PUSH2 0x34A8 DUP2 PUSH2 0x345B JUMP JUMPDEST DUP3 MSTORE POP POP JUMP JUMPDEST PUSH1 0x0 PUSH1 0x80 DUP3 ADD SWAP1 POP PUSH2 0x34C3 PUSH1 0x0 DUP4 ADD DUP8 PUSH2 0x1C1B JUMP JUMPDEST PUSH2 0x34D0 PUSH1 0x20 DUP4 ADD DUP7 PUSH2 0x349F JUMP JUMPDEST PUSH2 0x34DD PUSH1 0x40 DUP4 ADD DUP6 PUSH2 0x1C1B JUMP JUMPDEST PUSH2 0x34EA PUSH1 0x60 DUP4 ADD DUP5 PUSH2 0x1C1B JUMP JUMPDEST SWAP6 SWAP5 POP POP POP POP POP JUMP JUMPDEST PUSH1 0x0 DUP2 PUSH1 0x60 SHL SWAP1 POP SWAP2 SWAP1 POP JUMP JUMPDEST PUSH1 0x0 PUSH2 0x350B DUP3 PUSH2 0x34F3 JUMP JUMPDEST SWAP1 POP SWAP2 SWAP1 POP JUMP JUMPDEST PUSH1 0x0 PUSH2 0x351D DUP3 PUSH2 0x3500 JUMP JUMPDEST SWAP1 POP SWAP2 SWAP1 POP JUMP JUMPDEST PUSH2 0x3535 PUSH2 0x3530 DUP3 PUSH2 0x1A64 JUMP JUMPDEST PUSH2 0x3512 JUMP JUMPDEST DUP3 MSTORE POP POP JUMP JUMPDEST PUSH1 0x0 PUSH2 0x3547 DUP3 DUP6 PUSH2 0x2B23 JUMP JUMPDEST SWAP2 POP PUSH2 0x3553 DUP3 DUP5 PUSH2 0x3524 JUMP JUMPDEST PUSH1 0x14 DUP3 ADD SWAP2 POP DUP2 SWAP1 POP SWAP4 SWAP3 POP POP POP JUMP JUMPDEST PUSH1 0x0 PUSH2 0x356F DUP3 DUP5 PUSH2 0x2B23 JUMP JUMPDEST SWAP2 POP DUP2 SWAP1 POP SWAP3 SWAP2 POP POP JUMP JUMPDEST PUSH1 0x0 DUP2 MLOAD SWAP1 POP SWAP2 SWAP1 POP JUMP JUMPDEST PUSH1 0x0 PUSH2 0x3590 DUP3 PUSH2 0x357A JUMP JUMPDEST PUSH2 0x359A DUP2 DUP6 PUSH2 0x2D31 JUMP JUMPDEST SWAP4 POP PUSH2 0x35AA DUP2 DUP6 PUSH1 0x20 DUP7 ADD PUSH2 0x2AF0 JUMP JUMPDEST PUSH2 0x35B3 DUP2 PUSH2 0x19B3 JUMP JUMPDEST DUP5 ADD SWAP2 POP POP SWAP3 SWAP2 POP POP JUMP JUMPDEST PUSH1 0x0 PUSH1 0x20 DUP3 ADD SWAP1 POP DUP2 DUP2 SUB PUSH1 0x0 DUP4 ADD MSTORE PUSH2 0x35D8 DUP2 DUP5 PUSH2 0x3585 JUMP JUMPDEST SWAP1 POP SWAP3 SWAP2 POP POP JUMP JUMPDEST PUSH1 0x0 PUSH2 0x35F3 PUSH2 0x35EE DUP5 PUSH2 0x27A3 JUMP JUMPDEST PUSH2 0x1A24 JUMP JUMPDEST SWAP1 POP DUP3 DUP2 MSTORE PUSH1 0x20 DUP2 ADD DUP5 DUP5 DUP5 ADD GT ISZERO PUSH2 0x360F JUMPI PUSH2 0x360E PUSH2 0x1AA7 JUMP JUMPDEST JUMPDEST PUSH2 0x361A DUP5 DUP3 DUP6 PUSH2 0x2AF0 JUMP JUMPDEST POP SWAP4 SWAP3 POP POP POP JUMP JUMPDEST PUSH1 0x0 DUP3 PUSH1 0x1F DUP4 ADD SLT PUSH2 0x3637 JUMPI PUSH2 0x3636 PUSH2 0x1AA2 JUMP JUMPDEST JUMPDEST DUP2 MLOAD PUSH2 0x3647 DUP5 DUP3 PUSH1 0x20 DUP7 ADD PUSH2 0x35E0 JUMP JUMPDEST SWAP2 POP POP SWAP3 SWAP2 POP POP JUMP JUMPDEST PUSH1 0x0 PUSH1 0x20 DUP3 DUP5 SUB SLT ISZERO PUSH2 0x3666 JUMPI PUSH2 0x3665 PUSH2 0x19A4 JUMP JUMPDEST JUMPDEST PUSH1 0x0 DUP3 ADD MLOAD PUSH8 0xFFFFFFFFFFFFFFFF DUP2 GT ISZERO PUSH2 0x3684 JUMPI PUSH2 0x3683 PUSH2 0x19A9 JUMP JUMPDEST JUMPDEST PUSH2 0x3690 DUP5 DUP3 DUP6 ADD PUSH2 0x3622 JUMP JUMPDEST SWAP2 POP POP SWAP3 SWAP2 POP POP JUMP INVALID LOG2 PUSH5 0x6970667358 0x22 SLT KECCAK256 PUSH16 0x34024F5BFBC4A900EF66DAF89F4E632E 0xC8 PUSH30 0x28BA6411CC63730F8BA06364E364736F6C634300080F0033000000000000 "
		},
		"gasEstimates": {
			"creation": {
				"codeDepositCost": "2806200",
				"executionCost": "infinite",
				"totalCost": "infinite"
			},
			"external": {
				"GET_CAVEAT_ARRAY_PACKETHASH((address,bytes)[])": "infinite",
				"GET_CAVEAT_PACKETHASH((address,bytes))": "infinite",
				"GET_DELEGATION_PACKETHASH((address,bytes32,(address,bytes)[]))": "infinite",
				"GET_INVOCATIONS_PACKETHASH((((address,uint256,bytes),((address,bytes32,(address,bytes)[]),bytes)[])[],(uint256,uint256)))": "infinite",
				"GET_INVOCATION_ARRAY_PACKETHASH(((address,uint256,bytes),((address,bytes32,(address,bytes)[]),bytes)[])[])": "infinite",
				"GET_INVOCATION_PACKETHASH(((address,uint256,bytes),((address,bytes32,(address,bytes)[]),bytes)[]))": "infinite",
				"GET_REPLAYPROTECTION_PACKETHASH((uint256,uint256))": "infinite",
				"GET_SIGNEDDELEGATION_ARRAY_PACKETHASH(((address,bytes32,(address,bytes)[]),bytes)[])": "infinite",
				"GET_SIGNEDDELEGATION_PACKETHASH(((address,bytes32,(address,bytes)[]),bytes))": "infinite",
				"GET_TRANSACTION_PACKETHASH((address,uint256,bytes))": "infinite",
				"allowlist(address)": "2934",
				"contractInvoke(((address,uint256,bytes),((address,bytes32,(address,bytes)[]),bytes)[])[])": "infinite",
				"domainHash()": "infinite",
				"getDelegationTypedDataHash((address,bytes32,(address,bytes)[]))": "infinite",
				"getEIP712DomainHash(string,string,uint256,address)": "infinite",
				"getInvocationsTypedDataHash((((address,uint256,bytes),((address,bytes32,(address,bytes)[]),bytes)[])[],(uint256,uint256)))": "infinite",
				"getNonce(address,uint256)": "infinite",
				"invoke(((((address,uint256,bytes),((address,bytes32,(address,bytes)[]),bytes)[])[],(uint256,uint256)),bytes)[])": "infinite",
				"owner()": "2633",
				"removeAllowItem(address)": "infinite",
				"renounceOwnership()": "infinite",
				"setAllowItem(address)": "infinite",
				"transferOwnership(address)": "infinite",
				"verify(address)": "2973",
				"verifyDelegationSignature(((address,bytes32,(address,bytes)[]),bytes))": "infinite",
				"verifyInvocationSignature(((((address,uint256,bytes),((address,bytes32,(address,bytes)[]),bytes)[])[],(uint256,uint256)),bytes))": "infinite"
			},
			"internal": {
				"_msgSender()": "infinite"
			}
		},
		"methodIdentifiers": {
			"GET_CAVEAT_ARRAY_PACKETHASH((address,bytes)[])": "7b577b58",
			"GET_CAVEAT_PACKETHASH((address,bytes))": "08aaf6b0",
			"GET_DELEGATION_PACKETHASH((address,bytes32,(address,bytes)[]))": "2f52a2fd",
			"GET_INVOCATIONS_PACKETHASH((((address,uint256,bytes),((address,bytes32,(address,bytes)[]),bytes)[])[],(uint256,uint256)))": "7234eefe",
			"GET_INVOCATION_ARRAY_PACKETHASH(((address,uint256,bytes),((address,bytes32,(address,bytes)[]),bytes)[])[])": "3a481821",
			"GET_INVOCATION_PACKETHASH(((address,uint256,bytes),((address,bytes32,(address,bytes)[]),bytes)[]))": "5cf1b24a",
			"GET_REPLAYPROTECTION_PACKETHASH((uint256,uint256))": "6f965803",
			"GET_SIGNEDDELEGATION_ARRAY_PACKETHASH(((address,bytes32,(address,bytes)[]),bytes)[])": "736f7ce7",
			"GET_SIGNEDDELEGATION_PACKETHASH(((address,bytes32,(address,bytes)[]),bytes))": "6c2b1253",
			"GET_TRANSACTION_PACKETHASH((address,uint256,bytes))": "a2e01f75",
			"allowlist(address)": "a7cd52cb",
			"contractInvoke(((address,uint256,bytes),((address,bytes32,(address,bytes)[]),bytes)[])[])": "5c6d9f0c",
			"domainHash()": "dfe86ac5",
			"getDelegationTypedDataHash((address,bytes32,(address,bytes)[]))": "97182ed6",
			"getEIP712DomainHash(string,string,uint256,address)": "d327c1eb",
			"getInvocationsTypedDataHash((((address,uint256,bytes),((address,bytes32,(address,bytes)[]),bytes)[])[],(uint256,uint256)))": "60b6d768",
			"getNonce(address,uint256)": "89535803",
			"invoke(((((address,uint256,bytes),((address,bytes32,(address,bytes)[]),bytes)[])[],(uint256,uint256)),bytes)[])": "2fad7efc",
			"owner()": "8da5cb5b",
			"removeAllowItem(address)": "a5eaa1f1",
			"renounceOwnership()": "715018a6",
			"setAllowItem(address)": "3b7fa354",
			"transferOwnership(address)": "f2fde38b",
			"verify(address)": "63a9c3d7",
			"verifyDelegationSignature(((address,bytes32,(address,bytes)[]),bytes))": "8a04499e",
			"verifyInvocationSignature(((((address,uint256,bytes),((address,bytes32,(address,bytes)[]),bytes)[])[],(uint256,uint256)),bytes))": "caced6c5"
		}
	},
	"abi": [
		{
			"inputs": [],
			"stateMutability": "nonpayable",
			"type": "constructor"
		},
		{
			"anonymous": false,
			"inputs": [
				{
					"indexed": true,
					"internalType": "address",
					"name": "addr",
					"type": "address"
				}
			],
			"name": "AllowItemAdded",
			"type": "event"
		},
		{
			"anonymous": false,
			"inputs": [
				{
					"indexed": true,
					"internalType": "address",
					"name": "addr",
					"type": "address"
				}
			],
			"name": "AllowItemRemoved",
			"type": "event"
		},
		{
			"anonymous": false,
			"inputs": [
				{
					"indexed": true,
					"internalType": "address",
					"name": "previousOwner",
					"type": "address"
				},
				{
					"indexed": true,
					"internalType": "address",
					"name": "newOwner",
					"type": "address"
				}
			],
			"name": "OwnershipTransferred",
			"type": "event"
		},
		{
			"inputs": [
				{
					"components": [
						{
							"internalType": "address",
							"name": "enforcer",
							"type": "address"
						},
						{
							"internalType": "bytes",
							"name": "terms",
							"type": "bytes"
						}
					],
					"internalType": "struct Caveat[]",
					"name": "_input",
					"type": "tuple[]"
				}
			],
			"name": "GET_CAVEAT_ARRAY_PACKETHASH",
			"outputs": [
				{
					"internalType": "bytes32",
					"name": "",
					"type": "bytes32"
				}
			],
			"stateMutability": "pure",
			"type": "function"
		},
		{
			"inputs": [
				{
					"components": [
						{
							"internalType": "address",
							"name": "enforcer",
							"type": "address"
						},
						{
							"internalType": "bytes",
							"name": "terms",
							"type": "bytes"
						}
					],
					"internalType": "struct Caveat",
					"name": "_input",
					"type": "tuple"
				}
			],
			"name": "GET_CAVEAT_PACKETHASH",
			"outputs": [
				{
					"internalType": "bytes32",
					"name": "",
					"type": "bytes32"
				}
			],
			"stateMutability": "pure",
			"type": "function"
		},
		{
			"inputs": [
				{
					"components": [
						{
							"internalType": "address",
							"name": "delegate",
							"type": "address"
						},
						{
							"internalType": "bytes32",
							"name": "authority",
							"type": "bytes32"
						},
						{
							"components": [
								{
									"internalType": "address",
									"name": "enforcer",
									"type": "address"
								},
								{
									"internalType": "bytes",
									"name": "terms",
									"type": "bytes"
								}
							],
							"internalType": "struct Caveat[]",
							"name": "caveats",
							"type": "tuple[]"
						}
					],
					"internalType": "struct Delegation",
					"name": "_input",
					"type": "tuple"
				}
			],
			"name": "GET_DELEGATION_PACKETHASH",
			"outputs": [
				{
					"internalType": "bytes32",
					"name": "",
					"type": "bytes32"
				}
			],
			"stateMutability": "pure",
			"type": "function"
		},
		{
			"inputs": [
				{
					"components": [
						{
							"components": [
								{
									"components": [
										{
											"internalType": "address",
											"name": "to",
											"type": "address"
										},
										{
											"internalType": "uint256",
											"name": "gasLimit",
											"type": "uint256"
										},
										{
											"internalType": "bytes",
											"name": "data",
											"type": "bytes"
										}
									],
									"internalType": "struct Transaction",
									"name": "transaction",
									"type": "tuple"
								},
								{
									"components": [
										{
											"components": [
												{
													"internalType": "address",
													"name": "delegate",
													"type": "address"
												},
												{
													"internalType": "bytes32",
													"name": "authority",
													"type": "bytes32"
												},
												{
													"components": [
														{
															"internalType": "address",
															"name": "enforcer",
															"type": "address"
														},
														{
															"internalType": "bytes",
															"name": "terms",
															"type": "bytes"
														}
													],
													"internalType": "struct Caveat[]",
													"name": "caveats",
													"type": "tuple[]"
												}
											],
											"internalType": "struct Delegation",
											"name": "delegation",
											"type": "tuple"
										},
										{
											"internalType": "bytes",
											"name": "signature",
											"type": "bytes"
										}
									],
									"internalType": "struct SignedDelegation[]",
									"name": "authority",
									"type": "tuple[]"
								}
							],
							"internalType": "struct Invocation[]",
							"name": "batch",
							"type": "tuple[]"
						},
						{
							"components": [
								{
									"internalType": "uint256",
									"name": "nonce",
									"type": "uint256"
								},
								{
									"internalType": "uint256",
									"name": "queue",
									"type": "uint256"
								}
							],
							"internalType": "struct ReplayProtection",
							"name": "replayProtection",
							"type": "tuple"
						}
					],
					"internalType": "struct Invocations",
					"name": "_input",
					"type": "tuple"
				}
			],
			"name": "GET_INVOCATIONS_PACKETHASH",
			"outputs": [
				{
					"internalType": "bytes32",
					"name": "",
					"type": "bytes32"
				}
			],
			"stateMutability": "pure",
			"type": "function"
		},
		{
			"inputs": [
				{
					"components": [
						{
							"components": [
								{
									"internalType": "address",
									"name": "to",
									"type": "address"
								},
								{
									"internalType": "uint256",
									"name": "gasLimit",
									"type": "uint256"
								},
								{
									"internalType": "bytes",
									"name": "data",
									"type": "bytes"
								}
							],
							"internalType": "struct Transaction",
							"name": "transaction",
							"type": "tuple"
						},
						{
							"components": [
								{
									"components": [
										{
											"internalType": "address",
											"name": "delegate",
											"type": "address"
										},
										{
											"internalType": "bytes32",
											"name": "authority",
											"type": "bytes32"
										},
										{
											"components": [
												{
													"internalType": "address",
													"name": "enforcer",
													"type": "address"
												},
												{
													"internalType": "bytes",
													"name": "terms",
													"type": "bytes"
												}
											],
											"internalType": "struct Caveat[]",
											"name": "caveats",
											"type": "tuple[]"
										}
									],
									"internalType": "struct Delegation",
									"name": "delegation",
									"type": "tuple"
								},
								{
									"internalType": "bytes",
									"name": "signature",
									"type": "bytes"
								}
							],
							"internalType": "struct SignedDelegation[]",
							"name": "authority",
							"type": "tuple[]"
						}
					],
					"internalType": "struct Invocation[]",
					"name": "_input",
					"type": "tuple[]"
				}
			],
			"name": "GET_INVOCATION_ARRAY_PACKETHASH",
			"outputs": [
				{
					"internalType": "bytes32",
					"name": "",
					"type": "bytes32"
				}
			],
			"stateMutability": "pure",
			"type": "function"
		},
		{
			"inputs": [
				{
					"components": [
						{
							"components": [
								{
									"internalType": "address",
									"name": "to",
									"type": "address"
								},
								{
									"internalType": "uint256",
									"name": "gasLimit",
									"type": "uint256"
								},
								{
									"internalType": "bytes",
									"name": "data",
									"type": "bytes"
								}
							],
							"internalType": "struct Transaction",
							"name": "transaction",
							"type": "tuple"
						},
						{
							"components": [
								{
									"components": [
										{
											"internalType": "address",
											"name": "delegate",
											"type": "address"
										},
										{
											"internalType": "bytes32",
											"name": "authority",
											"type": "bytes32"
										},
										{
											"components": [
												{
													"internalType": "address",
													"name": "enforcer",
													"type": "address"
												},
												{
													"internalType": "bytes",
													"name": "terms",
													"type": "bytes"
												}
											],
											"internalType": "struct Caveat[]",
											"name": "caveats",
											"type": "tuple[]"
										}
									],
									"internalType": "struct Delegation",
									"name": "delegation",
									"type": "tuple"
								},
								{
									"internalType": "bytes",
									"name": "signature",
									"type": "bytes"
								}
							],
							"internalType": "struct SignedDelegation[]",
							"name": "authority",
							"type": "tuple[]"
						}
					],
					"internalType": "struct Invocation",
					"name": "_input",
					"type": "tuple"
				}
			],
			"name": "GET_INVOCATION_PACKETHASH",
			"outputs": [
				{
					"internalType": "bytes32",
					"name": "",
					"type": "bytes32"
				}
			],
			"stateMutability": "pure",
			"type": "function"
		},
		{
			"inputs": [
				{
					"components": [
						{
							"internalType": "uint256",
							"name": "nonce",
							"type": "uint256"
						},
						{
							"internalType": "uint256",
							"name": "queue",
							"type": "uint256"
						}
					],
					"internalType": "struct ReplayProtection",
					"name": "_input",
					"type": "tuple"
				}
			],
			"name": "GET_REPLAYPROTECTION_PACKETHASH",
			"outputs": [
				{
					"internalType": "bytes32",
					"name": "",
					"type": "bytes32"
				}
			],
			"stateMutability": "pure",
			"type": "function"
		},
		{
			"inputs": [
				{
					"components": [
						{
							"components": [
								{
									"internalType": "address",
									"name": "delegate",
									"type": "address"
								},
								{
									"internalType": "bytes32",
									"name": "authority",
									"type": "bytes32"
								},
								{
									"components": [
										{
											"internalType": "address",
											"name": "enforcer",
											"type": "address"
										},
										{
											"internalType": "bytes",
											"name": "terms",
											"type": "bytes"
										}
									],
									"internalType": "struct Caveat[]",
									"name": "caveats",
									"type": "tuple[]"
								}
							],
							"internalType": "struct Delegation",
							"name": "delegation",
							"type": "tuple"
						},
						{
							"internalType": "bytes",
							"name": "signature",
							"type": "bytes"
						}
					],
					"internalType": "struct SignedDelegation[]",
					"name": "_input",
					"type": "tuple[]"
				}
			],
			"name": "GET_SIGNEDDELEGATION_ARRAY_PACKETHASH",
			"outputs": [
				{
					"internalType": "bytes32",
					"name": "",
					"type": "bytes32"
				}
			],
			"stateMutability": "pure",
			"type": "function"
		},
		{
			"inputs": [
				{
					"components": [
						{
							"components": [
								{
									"internalType": "address",
									"name": "delegate",
									"type": "address"
								},
								{
									"internalType": "bytes32",
									"name": "authority",
									"type": "bytes32"
								},
								{
									"components": [
										{
											"internalType": "address",
											"name": "enforcer",
											"type": "address"
										},
										{
											"internalType": "bytes",
											"name": "terms",
											"type": "bytes"
										}
									],
									"internalType": "struct Caveat[]",
									"name": "caveats",
									"type": "tuple[]"
								}
							],
							"internalType": "struct Delegation",
							"name": "delegation",
							"type": "tuple"
						},
						{
							"internalType": "bytes",
							"name": "signature",
							"type": "bytes"
						}
					],
					"internalType": "struct SignedDelegation",
					"name": "_input",
					"type": "tuple"
				}
			],
			"name": "GET_SIGNEDDELEGATION_PACKETHASH",
			"outputs": [
				{
					"internalType": "bytes32",
					"name": "",
					"type": "bytes32"
				}
			],
			"stateMutability": "pure",
			"type": "function"
		},
		{
			"inputs": [
				{
					"components": [
						{
							"internalType": "address",
							"name": "to",
							"type": "address"
						},
						{
							"internalType": "uint256",
							"name": "gasLimit",
							"type": "uint256"
						},
						{
							"internalType": "bytes",
							"name": "data",
							"type": "bytes"
						}
					],
					"internalType": "struct Transaction",
					"name": "_input",
					"type": "tuple"
				}
			],
			"name": "GET_TRANSACTION_PACKETHASH",
			"outputs": [
				{
					"internalType": "bytes32",
					"name": "",
					"type": "bytes32"
				}
			],
			"stateMutability": "pure",
			"type": "function"
		},
		{
			"inputs": [
				{
					"internalType": "address",
					"name": "",
					"type": "address"
				}
			],
			"name": "allowlist",
			"outputs": [
				{
					"internalType": "bool",
					"name": "",
					"type": "bool"
				}
			],
			"stateMutability": "view",
			"type": "function"
		},
		{
			"inputs": [
				{
					"components": [
						{
							"components": [
								{
									"internalType": "address",
									"name": "to",
									"type": "address"
								},
								{
									"internalType": "uint256",
									"name": "gasLimit",
									"type": "uint256"
								},
								{
									"internalType": "bytes",
									"name": "data",
									"type": "bytes"
								}
							],
							"internalType": "struct Transaction",
							"name": "transaction",
							"type": "tuple"
						},
						{
							"components": [
								{
									"components": [
										{
											"internalType": "address",
											"name": "delegate",
											"type": "address"
										},
										{
											"internalType": "bytes32",
											"name": "authority",
											"type": "bytes32"
										},
										{
											"components": [
												{
													"internalType": "address",
													"name": "enforcer",
													"type": "address"
												},
												{
													"internalType": "bytes",
													"name": "terms",
													"type": "bytes"
												}
											],
											"internalType": "struct Caveat[]",
											"name": "caveats",
											"type": "tuple[]"
										}
									],
									"internalType": "struct Delegation",
									"name": "delegation",
									"type": "tuple"
								},
								{
									"internalType": "bytes",
									"name": "signature",
									"type": "bytes"
								}
							],
							"internalType": "struct SignedDelegation[]",
							"name": "authority",
							"type": "tuple[]"
						}
					],
					"internalType": "struct Invocation[]",
					"name": "batch",
					"type": "tuple[]"
				}
			],
			"name": "contractInvoke",
			"outputs": [
				{
					"internalType": "bool",
					"name": "",
					"type": "bool"
				}
			],
			"stateMutability": "nonpayable",
			"type": "function"
		},
		{
			"inputs": [],
			"name": "domainHash",
			"outputs": [
				{
					"internalType": "bytes32",
					"name": "",
					"type": "bytes32"
				}
			],
			"stateMutability": "view",
			"type": "function"
		},
		{
			"inputs": [
				{
					"components": [
						{
							"internalType": "address",
							"name": "delegate",
							"type": "address"
						},
						{
							"internalType": "bytes32",
							"name": "authority",
							"type": "bytes32"
						},
						{
							"components": [
								{
									"internalType": "address",
									"name": "enforcer",
									"type": "address"
								},
								{
									"internalType": "bytes",
									"name": "terms",
									"type": "bytes"
								}
							],
							"internalType": "struct Caveat[]",
							"name": "caveats",
							"type": "tuple[]"
						}
					],
					"internalType": "struct Delegation",
					"name": "delegation",
					"type": "tuple"
				}
			],
			"name": "getDelegationTypedDataHash",
			"outputs": [
				{
					"internalType": "bytes32",
					"name": "",
					"type": "bytes32"
				}
			],
			"stateMutability": "view",
			"type": "function"
		},
		{
			"inputs": [
				{
					"internalType": "string",
					"name": "contractName",
					"type": "string"
				},
				{
					"internalType": "string",
					"name": "version",
					"type": "string"
				},
				{
					"internalType": "uint256",
					"name": "chainId",
					"type": "uint256"
				},
				{
					"internalType": "address",
					"name": "verifyingContract",
					"type": "address"
				}
			],
			"name": "getEIP712DomainHash",
			"outputs": [
				{
					"internalType": "bytes32",
					"name": "",
					"type": "bytes32"
				}
			],
			"stateMutability": "pure",
			"type": "function"
		},
		{
			"inputs": [
				{
					"components": [
						{
							"components": [
								{
									"components": [
										{
											"internalType": "address",
											"name": "to",
											"type": "address"
										},
										{
											"internalType": "uint256",
											"name": "gasLimit",
											"type": "uint256"
										},
										{
											"internalType": "bytes",
											"name": "data",
											"type": "bytes"
										}
									],
									"internalType": "struct Transaction",
									"name": "transaction",
									"type": "tuple"
								},
								{
									"components": [
										{
											"components": [
												{
													"internalType": "address",
													"name": "delegate",
													"type": "address"
												},
												{
													"internalType": "bytes32",
													"name": "authority",
													"type": "bytes32"
												},
												{
													"components": [
														{
															"internalType": "address",
															"name": "enforcer",
															"type": "address"
														},
														{
															"internalType": "bytes",
															"name": "terms",
															"type": "bytes"
														}
													],
													"internalType": "struct Caveat[]",
													"name": "caveats",
													"type": "tuple[]"
												}
											],
											"internalType": "struct Delegation",
											"name": "delegation",
											"type": "tuple"
										},
										{
											"internalType": "bytes",
											"name": "signature",
											"type": "bytes"
										}
									],
									"internalType": "struct SignedDelegation[]",
									"name": "authority",
									"type": "tuple[]"
								}
							],
							"internalType": "struct Invocation[]",
							"name": "batch",
							"type": "tuple[]"
						},
						{
							"components": [
								{
									"internalType": "uint256",
									"name": "nonce",
									"type": "uint256"
								},
								{
									"internalType": "uint256",
									"name": "queue",
									"type": "uint256"
								}
							],
							"internalType": "struct ReplayProtection",
							"name": "replayProtection",
							"type": "tuple"
						}
					],
					"internalType": "struct Invocations",
					"name": "invocations",
					"type": "tuple"
				}
			],
			"name": "getInvocationsTypedDataHash",
			"outputs": [
				{
					"internalType": "bytes32",
					"name": "",
					"type": "bytes32"
				}
			],
			"stateMutability": "view",
			"type": "function"
		},
		{
			"inputs": [
				{
					"internalType": "address",
					"name": "intendedSender",
					"type": "address"
				},
				{
					"internalType": "uint256",
					"name": "queue",
					"type": "uint256"
				}
			],
			"name": "getNonce",
			"outputs": [
				{
					"internalType": "uint256",
					"name": "",
					"type": "uint256"
				}
			],
			"stateMutability": "view",
			"type": "function"
		},
		{
			"inputs": [
				{
					"components": [
						{
							"components": [
								{
									"components": [
										{
											"components": [
												{
													"internalType": "address",
													"name": "to",
													"type": "address"
												},
												{
													"internalType": "uint256",
													"name": "gasLimit",
													"type": "uint256"
												},
												{
													"internalType": "bytes",
													"name": "data",
													"type": "bytes"
												}
											],
											"internalType": "struct Transaction",
											"name": "transaction",
											"type": "tuple"
										},
										{
											"components": [
												{
													"components": [
														{
															"internalType": "address",
															"name": "delegate",
															"type": "address"
														},
														{
															"internalType": "bytes32",
															"name": "authority",
															"type": "bytes32"
														},
														{
															"components": [
																{
																	"internalType": "address",
																	"name": "enforcer",
																	"type": "address"
																},
																{
																	"internalType": "bytes",
																	"name": "terms",
																	"type": "bytes"
																}
															],
															"internalType": "struct Caveat[]",
															"name": "caveats",
															"type": "tuple[]"
														}
													],
													"internalType": "struct Delegation",
													"name": "delegation",
													"type": "tuple"
												},
												{
													"internalType": "bytes",
													"name": "signature",
													"type": "bytes"
												}
											],
											"internalType": "struct SignedDelegation[]",
											"name": "authority",
											"type": "tuple[]"
										}
									],
									"internalType": "struct Invocation[]",
									"name": "batch",
									"type": "tuple[]"
								},
								{
									"components": [
										{
											"internalType": "uint256",
											"name": "nonce",
											"type": "uint256"
										},
										{
											"internalType": "uint256",
											"name": "queue",
											"type": "uint256"
										}
									],
									"internalType": "struct ReplayProtection",
									"name": "replayProtection",
									"type": "tuple"
								}
							],
							"internalType": "struct Invocations",
							"name": "invocations",
							"type": "tuple"
						},
						{
							"internalType": "bytes",
							"name": "signature",
							"type": "bytes"
						}
					],
					"internalType": "struct SignedInvocation[]",
					"name": "signedInvocations",
					"type": "tuple[]"
				}
			],
			"name": "invoke",
			"outputs": [
				{
					"internalType": "bool",
					"name": "success",
					"type": "bool"
				}
			],
			"stateMutability": "nonpayable",
			"type": "function"
		},
		{
			"inputs": [],
			"name": "owner",
			"outputs": [
				{
					"internalType": "address",
					"name": "",
					"type": "address"
				}
			],
			"stateMutability": "view",
			"type": "function"
		},
		{
			"inputs": [
				{
					"internalType": "address",
					"name": "addr",
					"type": "address"
				}
			],
			"name": "removeAllowItem",
			"outputs": [],
			"stateMutability": "nonpayable",
			"type": "function"
		},
		{
			"inputs": [],
			"name": "renounceOwnership",
			"outputs": [],
			"stateMutability": "nonpayable",
			"type": "function"
		},
		{
			"inputs": [
				{
					"internalType": "address",
					"name": "addr",
					"type": "address"
				}
			],
			"name": "setAllowItem",
			"outputs": [],
			"stateMutability": "nonpayable",
			"type": "function"
		},
		{
			"inputs": [
				{
					"internalType": "address",
					"name": "newOwner",
					"type": "address"
				}
			],
			"name": "transferOwnership",
			"outputs": [],
			"stateMutability": "nonpayable",
			"type": "function"
		},
		{
			"inputs": [
				{
					"internalType": "address",
					"name": "addr",
					"type": "address"
				}
			],
			"name": "verify",
			"outputs": [
				{
					"internalType": "bool",
					"name": "",
					"type": "bool"
				}
			],
			"stateMutability": "view",
			"type": "function"
		},
		{
			"inputs": [
				{
					"components": [
						{
							"components": [
								{
									"internalType": "address",
									"name": "delegate",
									"type": "address"
								},
								{
									"internalType": "bytes32",
									"name": "authority",
									"type": "bytes32"
								},
								{
									"components": [
										{
											"internalType": "address",
											"name": "enforcer",
											"type": "address"
										},
										{
											"internalType": "bytes",
											"name": "terms",
											"type": "bytes"
										}
									],
									"internalType": "struct Caveat[]",
									"name": "caveats",
									"type": "tuple[]"
								}
							],
							"internalType": "struct Delegation",
							"name": "delegation",
							"type": "tuple"
						},
						{
							"internalType": "bytes",
							"name": "signature",
							"type": "bytes"
						}
					],
					"internalType": "struct SignedDelegation",
					"name": "signedDelegation",
					"type": "tuple"
				}
			],
			"name": "verifyDelegationSignature",
			"outputs": [
				{
					"internalType": "address",
					"name": "",
					"type": "address"
				}
			],
			"stateMutability": "view",
			"type": "function"
		},
		{
			"inputs": [
				{
					"components": [
						{
							"components": [
								{
									"components": [
										{
											"components": [
												{
													"internalType": "address",
													"name": "to",
													"type": "address"
												},
												{
													"internalType": "uint256",
													"name": "gasLimit",
													"type": "uint256"
												},
												{
													"internalType": "bytes",
													"name": "data",
													"type": "bytes"
												}
											],
											"internalType": "struct Transaction",
											"name": "transaction",
											"type": "tuple"
										},
										{
											"components": [
												{
													"components": [
														{
															"internalType": "address",
															"name": "delegate",
															"type": "address"
														},
														{
															"internalType": "bytes32",
															"name": "authority",
															"type": "bytes32"
														},
														{
															"components": [
																{
																	"internalType": "address",
																	"name": "enforcer",
																	"type": "address"
																},
																{
																	"internalType": "bytes",
																	"name": "terms",
																	"type": "bytes"
																}
															],
															"internalType": "struct Caveat[]",
															"name": "caveats",
															"type": "tuple[]"
														}
													],
													"internalType": "struct Delegation",
													"name": "delegation",
													"type": "tuple"
												},
												{
													"internalType": "bytes",
													"name": "signature",
													"type": "bytes"
												}
											],
											"internalType": "struct SignedDelegation[]",
											"name": "authority",
											"type": "tuple[]"
										}
									],
									"internalType": "struct Invocation[]",
									"name": "batch",
									"type": "tuple[]"
								},
								{
									"components": [
										{
											"internalType": "uint256",
											"name": "nonce",
											"type": "uint256"
										},
										{
											"internalType": "uint256",
											"name": "queue",
											"type": "uint256"
										}
									],
									"internalType": "struct ReplayProtection",
									"name": "replayProtection",
									"type": "tuple"
								}
							],
							"internalType": "struct Invocations",
							"name": "invocations",
							"type": "tuple"
						},
						{
							"internalType": "bytes",
							"name": "signature",
							"type": "bytes"
						}
					],
					"internalType": "struct SignedInvocation",
					"name": "signedInvocation",
					"type": "tuple"
				}
			],
			"name": "verifyInvocationSignature",
			"outputs": [
				{
					"internalType": "address",
					"name": "",
					"type": "address"
				}
			],
			"stateMutability": "view",
			"type": "function"
		}
	]
}